{
  "contractName": "MedicalSystem",
  "abi": [
    {
      "constant": true,
      "inputs": [
        {
          "name": "",
          "type": "address"
        }
      ],
      "name": "patients",
      "outputs": [
        {
          "name": "id",
          "type": "address"
        },
        {
          "name": "first_name",
          "type": "string"
        },
        {
          "name": "last_name",
          "type": "string"
        },
        {
          "name": "contact_number",
          "type": "string"
        },
        {
          "name": "blood_group",
          "type": "string"
        },
        {
          "name": "location",
          "type": "string"
        },
        {
          "name": "age",
          "type": "uint256"
        },
        {
          "name": "totalRecords",
          "type": "uint256"
        }
      ],
      "payable": false,
      "stateMutability": "view",
      "type": "function",
      "signature": "0x0869cfbc"
    },
    {
      "constant": true,
      "inputs": [],
      "name": "diagnosticCentreCount",
      "outputs": [
        {
          "name": "",
          "type": "uint256"
        }
      ],
      "payable": false,
      "stateMutability": "view",
      "type": "function",
      "signature": "0x246772e3"
    },
    {
      "constant": true,
      "inputs": [],
      "name": "doctorCount",
      "outputs": [
        {
          "name": "",
          "type": "uint256"
        }
      ],
      "payable": false,
      "stateMutability": "view",
      "type": "function",
      "signature": "0x78522bc4"
    },
    {
      "constant": true,
      "inputs": [
        {
          "name": "",
          "type": "address"
        }
      ],
      "name": "diagnosticCenter",
      "outputs": [
        {
          "name": "id",
          "type": "address"
        },
        {
          "name": "name",
          "type": "string"
        },
        {
          "name": "location",
          "type": "string"
        },
        {
          "name": "diagnosticCenterTotalRecords",
          "type": "uint256"
        },
        {
          "name": "noOfPatients",
          "type": "uint256"
        }
      ],
      "payable": false,
      "stateMutability": "view",
      "type": "function",
      "signature": "0x7b3cab26"
    },
    {
      "constant": true,
      "inputs": [],
      "name": "patientCount",
      "outputs": [
        {
          "name": "",
          "type": "uint256"
        }
      ],
      "payable": false,
      "stateMutability": "view",
      "type": "function",
      "signature": "0xa0303c41"
    },
    {
      "constant": true,
      "inputs": [
        {
          "name": "",
          "type": "address"
        }
      ],
      "name": "doctors",
      "outputs": [
        {
          "name": "id",
          "type": "address"
        },
        {
          "name": "first_name",
          "type": "string"
        },
        {
          "name": "last_name",
          "type": "string"
        },
        {
          "name": "contact_number",
          "type": "string"
        },
        {
          "name": "creditionals",
          "type": "string"
        },
        {
          "name": "hospital",
          "type": "string"
        },
        {
          "name": "department",
          "type": "string"
        },
        {
          "name": "imageUrl",
          "type": "string"
        }
      ],
      "payable": false,
      "stateMutability": "view",
      "type": "function",
      "signature": "0xa9583c22"
    },
    {
      "inputs": [],
      "payable": false,
      "stateMutability": "nonpayable",
      "type": "constructor",
      "signature": "constructor"
    },
    {
      "anonymous": false,
      "inputs": [
        {
          "indexed": false,
          "name": "id",
          "type": "address"
        },
        {
          "indexed": false,
          "name": "first_name",
          "type": "string"
        },
        {
          "indexed": false,
          "name": "last_name",
          "type": "string"
        },
        {
          "indexed": false,
          "name": "contact_number",
          "type": "string"
        },
        {
          "indexed": false,
          "name": "blood_group",
          "type": "string"
        },
        {
          "indexed": false,
          "name": "location",
          "type": "string"
        },
        {
          "indexed": false,
          "name": "age",
          "type": "uint256"
        }
      ],
      "name": "PatientCreated",
      "type": "event",
      "signature": "0x907fe45ac4d9d503b344526760651e35c37a5e9ff5a18b01f2a18e5500ad7325"
    },
    {
      "anonymous": false,
      "inputs": [
        {
          "indexed": false,
          "name": "patientId",
          "type": "address"
        },
        {
          "indexed": false,
          "name": "newRecordId",
          "type": "uint256"
        },
        {
          "indexed": false,
          "name": "name",
          "type": "string"
        },
        {
          "indexed": false,
          "name": "uploadDate",
          "type": "uint256"
        }
      ],
      "name": "PatientRecordUploaded",
      "type": "event",
      "signature": "0x117e74ae24315ed88cdedb6182581ce0278bb9fda842125f2d04421ce05e27ca"
    },
    {
      "anonymous": false,
      "inputs": [
        {
          "indexed": true,
          "name": "patientId",
          "type": "address"
        },
        {
          "indexed": true,
          "name": "doctorId",
          "type": "address"
        }
      ],
      "name": "GivenPermission",
      "type": "event",
      "signature": "0x93b2764630793d9e391268c5205e3960890b0370b1e90349fb17a870bcfd1352"
    },
    {
      "anonymous": false,
      "inputs": [
        {
          "indexed": false,
          "name": "id",
          "type": "address"
        },
        {
          "indexed": false,
          "name": "first_name",
          "type": "string"
        },
        {
          "indexed": false,
          "name": "last_name",
          "type": "string"
        },
        {
          "indexed": false,
          "name": "contact_number",
          "type": "string"
        },
        {
          "indexed": false,
          "name": "creditionals",
          "type": "string"
        },
        {
          "indexed": false,
          "name": "hospital",
          "type": "string"
        },
        {
          "indexed": false,
          "name": "department",
          "type": "string"
        },
        {
          "indexed": false,
          "name": "imageUrl",
          "type": "string"
        }
      ],
      "name": "DoctorCreated",
      "type": "event",
      "signature": "0xcdd9385c1acf3a32270e7e494e62e0234da75c0dd23f288505c0b3297d1b2bae"
    },
    {
      "anonymous": false,
      "inputs": [
        {
          "indexed": false,
          "name": "id",
          "type": "address"
        },
        {
          "indexed": false,
          "name": "name",
          "type": "string"
        },
        {
          "indexed": false,
          "name": "location",
          "type": "string"
        }
      ],
      "name": "DiagnosticCenterCreated",
      "type": "event",
      "signature": "0x15135a2d34d07691305f63fc82452db7e533e450d37de35c5a90b5ee8e77e951"
    },
    {
      "anonymous": false,
      "inputs": [
        {
          "indexed": false,
          "name": "diagnosticCenterId",
          "type": "address"
        },
        {
          "indexed": false,
          "name": "newRecordId",
          "type": "uint256"
        },
        {
          "indexed": false,
          "name": "name",
          "type": "string"
        },
        {
          "indexed": false,
          "name": "uploadDate",
          "type": "uint256"
        }
      ],
      "name": "DiagnosticCenterRecordUpload",
      "type": "event",
      "signature": "0xfbef12e9c1cb81308f0517237d58bee7b7576a43b4b1929330dd87a8d81cb46d"
    },
    {
      "constant": true,
      "inputs": [],
      "name": "login",
      "outputs": [
        {
          "name": "userType",
          "type": "string"
        }
      ],
      "payable": false,
      "stateMutability": "view",
      "type": "function",
      "signature": "0xb34e97e8"
    },
    {
      "constant": false,
      "inputs": [
        {
          "name": "_first_name",
          "type": "string"
        },
        {
          "name": "_last_name",
          "type": "string"
        },
        {
          "name": "_contact_number",
          "type": "string"
        },
        {
          "name": "_blood_group",
          "type": "string"
        },
        {
          "name": "_location",
          "type": "string"
        },
        {
          "name": "_age",
          "type": "uint256"
        }
      ],
      "name": "createPatient",
      "outputs": [],
      "payable": false,
      "stateMutability": "nonpayable",
      "type": "function",
      "signature": "0xe4f97713"
    },
    {
      "constant": false,
      "inputs": [
        {
          "name": "_name",
          "type": "string"
        },
        {
          "name": "_location",
          "type": "string"
        }
      ],
      "name": "createDiagnosticCenter",
      "outputs": [],
      "payable": false,
      "stateMutability": "nonpayable",
      "type": "function",
      "signature": "0x89f81c38"
    },
    {
      "constant": false,
      "inputs": [
        {
          "name": "_ipfsHash",
          "type": "string"
        },
        {
          "name": "_name",
          "type": "string"
        }
      ],
      "name": "uploadPatientRecord",
      "outputs": [],
      "payable": false,
      "stateMutability": "nonpayable",
      "type": "function",
      "signature": "0xcdac6364"
    },
    {
      "constant": false,
      "inputs": [
        {
          "name": "_ipfsHash",
          "type": "string"
        },
        {
          "name": "_name",
          "type": "string"
        },
        {
          "name": "_patientAddress",
          "type": "address"
        }
      ],
      "name": "uploadDiagnosticCenterRecord",
      "outputs": [],
      "payable": false,
      "stateMutability": "nonpayable",
      "type": "function",
      "signature": "0xf58f6ea9"
    },
    {
      "constant": true,
      "inputs": [
        {
          "name": "_patientId",
          "type": "address"
        },
        {
          "name": "_recordId",
          "type": "uint256"
        }
      ],
      "name": "getPatientRecord",
      "outputs": [
        {
          "name": "ipfsHash",
          "type": "string"
        },
        {
          "name": "name",
          "type": "string"
        },
        {
          "name": "uploadDate",
          "type": "uint256"
        }
      ],
      "payable": false,
      "stateMutability": "view",
      "type": "function",
      "signature": "0x6d93fa19"
    },
    {
      "constant": false,
      "inputs": [
        {
          "name": "_first_name",
          "type": "string"
        },
        {
          "name": "_last_name",
          "type": "string"
        },
        {
          "name": "_contact_number",
          "type": "string"
        },
        {
          "name": "_creditionals",
          "type": "string"
        },
        {
          "name": "_hospitals",
          "type": "string"
        },
        {
          "name": "_department",
          "type": "string"
        },
        {
          "name": "_imageUrl",
          "type": "string"
        }
      ],
      "name": "createDoctor",
      "outputs": [],
      "payable": false,
      "stateMutability": "nonpayable",
      "type": "function",
      "signature": "0x09f20ec7"
    },
    {
      "constant": false,
      "inputs": [
        {
          "name": "_doctorId",
          "type": "address"
        }
      ],
      "name": "givePermission",
      "outputs": [],
      "payable": false,
      "stateMutability": "nonpayable",
      "type": "function",
      "signature": "0x3d391f70"
    }
  ],
  "bytecode": "0x6080604052600080556000600155600060025534801561001e57600080fd5b50614f248061002e6000396000f3fe6080604052600436106100d0576000357c0100000000000000000000000000000000000000000000000000000000900463ffffffff1680630869cfbc146100d557806309f20ec714610390578063246772e3146107e25780633d391f701461080d5780636d93fa191461085e57806378522bc4146109a55780637b3cab26146109d057806389f81c3814610b47578063a0303c4114610ca6578063a9583c2214610cd1578063b34e97e814611056578063cdac6364146110e6578063e4f9771314611245578063f58f6ea914611573575b600080fd5b3480156100e157600080fd5b50610124600480360360208110156100f857600080fd5b81019080803573ffffffffffffffffffffffffffffffffffffffff1690602001909291905050506116f2565b604051808973ffffffffffffffffffffffffffffffffffffffff1673ffffffffffffffffffffffffffffffffffffffff168152602001806020018060200180602001806020018060200188815260200187815260200186810386528d818151815260200191508051906020019080838360005b838110156101b2578082015181840152602081019050610197565b50505050905090810190601f1680156101df5780820380516001836020036101000a031916815260200191505b5086810385528c818151815260200191508051906020019080838360005b838110156102185780820151818401526020810190506101fd565b50505050905090810190601f1680156102455780820380516001836020036101000a031916815260200191505b5086810384528b818151815260200191508051906020019080838360005b8381101561027e578082015181840152602081019050610263565b50505050905090810190601f1680156102ab5780820380516001836020036101000a031916815260200191505b5086810383528a818151815260200191508051906020019080838360005b838110156102e45780820151818401526020810190506102c9565b50505050905090810190601f1680156103115780820380516001836020036101000a031916815260200191505b50868103825289818151815260200191508051906020019080838360005b8381101561034a57808201518184015260208101905061032f565b50505050905090810190601f1680156103775780820380516001836020036101000a031916815260200191505b509d505050505050505050505050505060405180910390f35b34801561039c57600080fd5b506107e0600480360360e08110156103b357600080fd5b81019080803590602001906401000000008111156103d057600080fd5b8201836020820111156103e257600080fd5b8035906020019184600183028401116401000000008311171561040457600080fd5b91908080601f016020809104026020016040519081016040528093929190818152602001838380828437600081840152601f19601f8201169050808301925050505050505091929192908035906020019064010000000081111561046757600080fd5b82018360208201111561047957600080fd5b8035906020019184600183028401116401000000008311171561049b57600080fd5b91908080601f016020809104026020016040519081016040528093929190818152602001838380828437600081840152601f19601f820116905080830192505050505050509192919290803590602001906401000000008111156104fe57600080fd5b82018360208201111561051057600080fd5b8035906020019184600183028401116401000000008311171561053257600080fd5b91908080601f016020809104026020016040519081016040528093929190818152602001838380828437600081840152601f19601f8201169050808301925050505050505091929192908035906020019064010000000081111561059557600080fd5b8201836020820111156105a757600080fd5b803590602001918460018302840111640100000000831117156105c957600080fd5b91908080601f016020809104026020016040519081016040528093929190818152602001838380828437600081840152601f19601f8201169050808301925050505050505091929192908035906020019064010000000081111561062c57600080fd5b82018360208201111561063e57600080fd5b8035906020019184600183028401116401000000008311171561066057600080fd5b91908080601f016020809104026020016040519081016040528093929190818152602001838380828437600081840152601f19601f820116905080830192505050505050509192919290803590602001906401000000008111156106c357600080fd5b8201836020820111156106d557600080fd5b803590602001918460018302840111640100000000831117156106f757600080fd5b91908080601f016020809104026020016040519081016040528093929190818152602001838380828437600081840152601f19601f8201169050808301925050505050505091929192908035906020019064010000000081111561075a57600080fd5b82018360208201111561076c57600080fd5b8035906020019184600183028401116401000000008311171561078e57600080fd5b91908080601f016020809104026020016040519081016040528093929190818152602001838380828437600081840152601f19601f820116905080830192505050505050509192919290505050611a52565b005b3480156107ee57600080fd5b506107f76123f0565b6040518082815260200191505060405180910390f35b34801561081957600080fd5b5061085c6004803603602081101561083057600080fd5b81019080803573ffffffffffffffffffffffffffffffffffffffff1690602001909291905050506123f6565b005b34801561086a57600080fd5b506108b76004803603604081101561088157600080fd5b81019080803573ffffffffffffffffffffffffffffffffffffffff169060200190929190803590602001909291905050506129af565b604051808060200180602001848152602001838103835286818151815260200191508051906020019080838360005b838110156109015780820151818401526020810190506108e6565b50505050905090810190601f16801561092e5780820380516001836020036101000a031916815260200191505b50838103825285818151815260200191508051906020019080838360005b8381101561096757808201518184015260208101905061094c565b50505050905090810190601f1680156109945780820380516001836020036101000a031916815260200191505b509550505050505060405180910390f35b3480156109b157600080fd5b506109ba612fbb565b6040518082815260200191505060405180910390f35b3480156109dc57600080fd5b50610a1f600480360360208110156109f357600080fd5b81019080803573ffffffffffffffffffffffffffffffffffffffff169060200190929190505050612fc1565b604051808673ffffffffffffffffffffffffffffffffffffffff1673ffffffffffffffffffffffffffffffffffffffff1681526020018060200180602001858152602001848152602001838103835287818151815260200191508051906020019080838360005b83811015610aa1578082015181840152602081019050610a86565b50505050905090810190601f168015610ace5780820380516001836020036101000a031916815260200191505b50838103825286818151815260200191508051906020019080838360005b83811015610b07578082015181840152602081019050610aec565b50505050905090810190601f168015610b345780820380516001836020036101000a031916815260200191505b5097505050505050505060405180910390f35b348015610b5357600080fd5b50610ca460048036036040811015610b6a57600080fd5b8101908080359060200190640100000000811115610b8757600080fd5b820183602082011115610b9957600080fd5b80359060200191846001830284011164010000000083111715610bbb57600080fd5b91908080601f016020809104026020016040519081016040528093929190818152602001838380828437600081840152601f19601f82011690508083019250505050505050919291929080359060200190640100000000811115610c1e57600080fd5b820183602082011115610c3057600080fd5b80359060200191846001830284011164010000000083111715610c5257600080fd5b91908080601f016020809104026020016040519081016040528093929190818152602001838380828437600081840152601f19601f820116905080830192505050505050509192919290505050613147565b005b348015610cb257600080fd5b50610cbb613791565b6040518082815260200191505060405180910390f35b348015610cdd57600080fd5b50610d2060048036036020811015610cf457600080fd5b81019080803573ffffffffffffffffffffffffffffffffffffffff169060200190929190505050613797565b604051808973ffffffffffffffffffffffffffffffffffffffff1673ffffffffffffffffffffffffffffffffffffffff1681526020018060200180602001806020018060200180602001806020018060200188810388528f818151815260200191508051906020019080838360005b83811015610daa578082015181840152602081019050610d8f565b50505050905090810190601f168015610dd75780820380516001836020036101000a031916815260200191505b5088810387528e818151815260200191508051906020019080838360005b83811015610e10578082015181840152602081019050610df5565b50505050905090810190601f168015610e3d5780820380516001836020036101000a031916815260200191505b5088810386528d818151815260200191508051906020019080838360005b83811015610e76578082015181840152602081019050610e5b565b50505050905090810190601f168015610ea35780820380516001836020036101000a031916815260200191505b5088810385528c818151815260200191508051906020019080838360005b83811015610edc578082015181840152602081019050610ec1565b50505050905090810190601f168015610f095780820380516001836020036101000a031916815260200191505b5088810384528b818151815260200191508051906020019080838360005b83811015610f42578082015181840152602081019050610f27565b50505050905090810190601f168015610f6f5780820380516001836020036101000a031916815260200191505b5088810383528a818151815260200191508051906020019080838360005b83811015610fa8578082015181840152602081019050610f8d565b50505050905090810190601f168015610fd55780820380516001836020036101000a031916815260200191505b50888103825289818151815260200191508051906020019080838360005b8381101561100e578082015181840152602081019050610ff3565b50505050905090810190601f16801561103b5780820380516001836020036101000a031916815260200191505b509f5050505050505050505050505050505060405180910390f35b34801561106257600080fd5b5061106b613c27565b6040518080602001828103825283818151815260200191508051906020019080838360005b838110156110ab578082015181840152602081019050611090565b50505050905090810190601f1680156110d85780820380516001836020036101000a031916815260200191505b509250505060405180910390f35b3480156110f257600080fd5b506112436004803603604081101561110957600080fd5b810190808035906020019064010000000081111561112657600080fd5b82018360208201111561113857600080fd5b8035906020019184600183028401116401000000008311171561115a57600080fd5b91908080601f016020809104026020016040519081016040528093929190818152602001838380828437600081840152601f19601f820116905080830192505050505050509192919290803590602001906401000000008111156111bd57600080fd5b8201836020820111156111cf57600080fd5b803590602001918460018302840111640100000000831117156111f157600080fd5b91908080601f016020809104026020016040519081016040528093929190818152602001838380828437600081840152601f19601f820116905080830192505050505050509192919290505050613ee4565b005b34801561125157600080fd5b50611571600480360360c081101561126857600080fd5b810190808035906020019064010000000081111561128557600080fd5b82018360208201111561129757600080fd5b803590602001918460018302840111640100000000831117156112b957600080fd5b91908080601f016020809104026020016040519081016040528093929190818152602001838380828437600081840152601f19601f8201169050808301925050505050505091929192908035906020019064010000000081111561131c57600080fd5b82018360208201111561132e57600080fd5b8035906020019184600183028401116401000000008311171561135057600080fd5b91908080601f016020809104026020016040519081016040528093929190818152602001838380828437600081840152601f19601f820116905080830192505050505050509192919290803590602001906401000000008111156113b357600080fd5b8201836020820111156113c557600080fd5b803590602001918460018302840111640100000000831117156113e757600080fd5b91908080601f016020809104026020016040519081016040528093929190818152602001838380828437600081840152601f19601f8201169050808301925050505050505091929192908035906020019064010000000081111561144a57600080fd5b82018360208201111561145c57600080fd5b8035906020019184600183028401116401000000008311171561147e57600080fd5b91908080601f016020809104026020016040519081016040528093929190818152602001838380828437600081840152601f19601f820116905080830192505050505050509192919290803590602001906401000000008111156114e157600080fd5b8201836020820111156114f357600080fd5b8035906020019184600183028401116401000000008311171561151557600080fd5b91908080601f016020809104026020016040519081016040528093929190818152602001838380828437600081840152601f19601f820116905080830192505050505050509192919290803590602001909291905050506141cb565b005b34801561157f57600080fd5b506116f06004803603606081101561159657600080fd5b81019080803590602001906401000000008111156115b357600080fd5b8201836020820111156115c557600080fd5b803590602001918460018302840111640100000000831117156115e757600080fd5b91908080601f016020809104026020016040519081016040528093929190818152602001838380828437600081840152601f19601f8201169050808301925050505050505091929192908035906020019064010000000081111561164a57600080fd5b82018360208201111561165c57600080fd5b8035906020019184600183028401116401000000008311171561167e57600080fd5b91908080601f016020809104026020016040519081016040528093929190818152602001838380828437600081840152601f19601f820116905080830192505050505050509192919290803573ffffffffffffffffffffffffffffffffffffffff169060200190929190505050614a34565b005b60036020528060005260406000206000915090508060000160009054906101000a900473ffffffffffffffffffffffffffffffffffffffff1690806001018054600181600116156101000203166002900480601f0160208091040260200160405190810160405280929190818152602001828054600181600116156101000203166002900480156117c45780601f10611799576101008083540402835291602001916117c4565b820191906000526020600020905b8154815290600101906020018083116117a757829003601f168201915b505050505090806002018054600181600116156101000203166002900480601f0160208091040260200160405190810160405280929190818152602001828054600181600116156101000203166002900480156118625780601f1061183757610100808354040283529160200191611862565b820191906000526020600020905b81548152906001019060200180831161184557829003601f168201915b505050505090806003018054600181600116156101000203166002900480601f0160208091040260200160405190810160405280929190818152602001828054600181600116156101000203166002900480156119005780601f106118d557610100808354040283529160200191611900565b820191906000526020600020905b8154815290600101906020018083116118e357829003601f168201915b505050505090806004018054600181600116156101000203166002900480601f01602080910402602001604051908101604052809291908181526020018280546001816001161561010002031660029004801561199e5780601f106119735761010080835404028352916020019161199e565b820191906000526020600020905b81548152906001019060200180831161198157829003601f168201915b505050505090806005018054600181600116156101000203166002900480601f016020809104026020016040519081016040528092919081815260200182805460018160011615610100020316600290048015611a3c5780601f10611a1157610100808354040283529160200191611a3c565b820191906000526020600020905b815481529060010190602001808311611a1f57829003601f168201915b5050505050908060060154908060070154905088565b600073ffffffffffffffffffffffffffffffffffffffff16600360003373ffffffffffffffffffffffffffffffffffffffff1673ffffffffffffffffffffffffffffffffffffffff16815260200190815260200160002060000160009054906101000a900473ffffffffffffffffffffffffffffffffffffffff1673ffffffffffffffffffffffffffffffffffffffff16141515611b58576040517f08c379a000000000000000000000000000000000000000000000000000000000815260040180806020018281038252601f8152602001807f416c7265616479207265676973746572656420617320612050617469656e740081525060200191505060405180910390fd5b600073ffffffffffffffffffffffffffffffffffffffff16600460003373ffffffffffffffffffffffffffffffffffffffff1673ffffffffffffffffffffffffffffffffffffffff16815260200190815260200160002060000160009054906101000a900473ffffffffffffffffffffffffffffffffffffffff1673ffffffffffffffffffffffffffffffffffffffff16141515611c5e576040517f08c379a000000000000000000000000000000000000000000000000000000000815260040180806020018281038252601e8152602001807f416c72656164792072656769737465726564206173206120446f63746f72000081525060200191505060405180910390fd5b600073ffffffffffffffffffffffffffffffffffffffff16600560003373ffffffffffffffffffffffffffffffffffffffff1673ffffffffffffffffffffffffffffffffffffffff16815260200190815260200160002060000160009054906101000a900473ffffffffffffffffffffffffffffffffffffffff1673ffffffffffffffffffffffffffffffffffffffff16141515611d8a576040517f08c379a00000000000000000000000000000000000000000000000000000000081526004018080602001828103825260298152602001807f416c72656164792072656769737465726564206173206120446961676e6f737481526020017f69632043656e746572000000000000000000000000000000000000000000000081525060400191505060405180910390fd5b600160008154809291906001019190505550610100604051908101604052803373ffffffffffffffffffffffffffffffffffffffff16815260200188815260200187815260200186815260200185815260200184815260200183815260200182815250600460003373ffffffffffffffffffffffffffffffffffffffff1673ffffffffffffffffffffffffffffffffffffffff16815260200190815260200160002060008201518160000160006101000a81548173ffffffffffffffffffffffffffffffffffffffff021916908373ffffffffffffffffffffffffffffffffffffffff1602179055506020820151816001019080519060200190611e8f929190614e53565b506040820151816002019080519060200190611eac929190614e53565b506060820151816003019080519060200190611ec9929190614e53565b506080820151816004019080519060200190611ee6929190614e53565b5060a0820151816005019080519060200190611f03929190614e53565b5060c0820151816006019080519060200190611f20929190614e53565b5060e0820151816007019080519060200190611f3d929190614e53565b509050506000600460003373ffffffffffffffffffffffffffffffffffffffff1673ffffffffffffffffffffffffffffffffffffffff16815260200190815260200160002090507fcdd9385c1acf3a32270e7e494e62e0234da75c0dd23f288505c0b3297d1b2bae8160000160009054906101000a900473ffffffffffffffffffffffffffffffffffffffff1682600101836002018460030185600401866005018760060188600701604051808973ffffffffffffffffffffffffffffffffffffffff1673ffffffffffffffffffffffffffffffffffffffff1681526020018060200180602001806020018060200180602001806020018060200188810388528f8181546001816001161561010002031660029004815260200191508054600181600116156101000203166002900480156120b95780601f1061208e576101008083540402835291602001916120b9565b820191906000526020600020905b81548152906001019060200180831161209c57829003601f168201915b505088810387528e81815460018160011615610100020316600290048152602001915080546001816001161561010002031660029004801561213c5780601f106121115761010080835404028352916020019161213c565b820191906000526020600020905b81548152906001019060200180831161211f57829003601f168201915b505088810386528d8181546001816001161561010002031660029004815260200191508054600181600116156101000203166002900480156121bf5780601f10612194576101008083540402835291602001916121bf565b820191906000526020600020905b8154815290600101906020018083116121a257829003601f168201915b505088810385528c8181546001816001161561010002031660029004815260200191508054600181600116156101000203166002900480156122425780601f1061221757610100808354040283529160200191612242565b820191906000526020600020905b81548152906001019060200180831161222557829003601f168201915b505088810384528b8181546001816001161561010002031660029004815260200191508054600181600116156101000203166002900480156122c55780601f1061229a576101008083540402835291602001916122c5565b820191906000526020600020905b8154815290600101906020018083116122a857829003601f168201915b505088810383528a8181546001816001161561010002031660029004815260200191508054600181600116156101000203166002900480156123485780601f1061231d57610100808354040283529160200191612348565b820191906000526020600020905b81548152906001019060200180831161232b57829003601f168201915b50508881038252898181546001816001161561010002031660029004815260200191508054600181600116156101000203166002900480156123cb5780601f106123a0576101008083540402835291602001916123cb565b820191906000526020600020905b8154815290600101906020018083116123ae57829003601f168201915b50509f5050505050505050505050505050505060405180910390a15050505050505050565b60025481565b600073ffffffffffffffffffffffffffffffffffffffff16600360003373ffffffffffffffffffffffffffffffffffffffff1673ffffffffffffffffffffffffffffffffffffffff16815260200190815260200160002060000160009054906101000a900473ffffffffffffffffffffffffffffffffffffffff1673ffffffffffffffffffffffffffffffffffffffff1614151515612523576040517f08c379a00000000000000000000000000000000000000000000000000000000081526004018080602001828103825260228152602001807f53656e646572206973206e6f742061205265676973746572656420506174696581526020017f6e7400000000000000000000000000000000000000000000000000000000000081525060400191505060405180910390fd5b600073ffffffffffffffffffffffffffffffffffffffff16600460008373ffffffffffffffffffffffffffffffffffffffff1673ffffffffffffffffffffffffffffffffffffffff16815260200190815260200160002060000160009054906101000a900473ffffffffffffffffffffffffffffffffffffffff1673ffffffffffffffffffffffffffffffffffffffff161415151561262a576040517f08c379a000000000000000000000000000000000000000000000000000000000815260040180806020018281038252601a8152602001807f496e76616c696420446f63746f722049442070726f766964656400000000000081525060200191505060405180910390fd5b60001515600360003373ffffffffffffffffffffffffffffffffffffffff1673ffffffffffffffffffffffffffffffffffffffff16815260200190815260200160002060090160008373ffffffffffffffffffffffffffffffffffffffff1673ffffffffffffffffffffffffffffffffffffffff16815260200190815260200160002060009054906101000a900460ff16151514801561275a575060001515600460008373ffffffffffffffffffffffffffffffffffffffff1673ffffffffffffffffffffffffffffffffffffffff16815260200190815260200160002060080160003373ffffffffffffffffffffffffffffffffffffffff1673ffffffffffffffffffffffffffffffffffffffff16815260200190815260200160002060009054906101000a900460ff161515145b15156127ce576040517f08c379a000000000000000000000000000000000000000000000000000000000815260040180806020018281038252601a8152602001807f5065726d697373696f6e20616c7265616479206772616e74656400000000000081525060200191505060405180910390fd5b6000600360003373ffffffffffffffffffffffffffffffffffffffff1673ffffffffffffffffffffffffffffffffffffffff168152602001908152602001600020905060018160090160008473ffffffffffffffffffffffffffffffffffffffff1673ffffffffffffffffffffffffffffffffffffffff16815260200190815260200160002060006101000a81548160ff0219169083151502179055506000600460008473ffffffffffffffffffffffffffffffffffffffff1673ffffffffffffffffffffffffffffffffffffffff168152602001908152602001600020905060018160080160003373ffffffffffffffffffffffffffffffffffffffff1673ffffffffffffffffffffffffffffffffffffffff16815260200190815260200160002060006101000a81548160ff0219169083151502179055508060000160009054906101000a900473ffffffffffffffffffffffffffffffffffffffff1673ffffffffffffffffffffffffffffffffffffffff168260000160009054906101000a900473ffffffffffffffffffffffffffffffffffffffff1673ffffffffffffffffffffffffffffffffffffffff167f93b2764630793d9e391268c5205e3960890b0370b1e90349fb17a870bcfd135260405160405180910390a3505050565b60608060008073ffffffffffffffffffffffffffffffffffffffff16600360008773ffffffffffffffffffffffffffffffffffffffff1673ffffffffffffffffffffffffffffffffffffffff16815260200190815260200160002060000160009054906101000a900473ffffffffffffffffffffffffffffffffffffffff1673ffffffffffffffffffffffffffffffffffffffff1614151515612aba576040517f08c379a000000000000000000000000000000000000000000000000000000000815260040180806020018281038252601b8152602001807f496e76616c69642050617469656e742049442070726f7669646564000000000081525060200191505060405180910390fd5b3373ffffffffffffffffffffffffffffffffffffffff168573ffffffffffffffffffffffffffffffffffffffff16141515612d4b57600073ffffffffffffffffffffffffffffffffffffffff16600460003373ffffffffffffffffffffffffffffffffffffffff1673ffffffffffffffffffffffffffffffffffffffff16815260200190815260200160002060000160009054906101000a900473ffffffffffffffffffffffffffffffffffffffff1673ffffffffffffffffffffffffffffffffffffffff1614151515612c1c576040517f08c379a00000000000000000000000000000000000000000000000000000000081526004018080602001828103825260218152602001807f53656e646572206973206e6f742061205265676973746572656420446f63746f81526020017f720000000000000000000000000000000000000000000000000000000000000081525060400191505060405180910390fd5b60011515600360008773ffffffffffffffffffffffffffffffffffffffff1673ffffffffffffffffffffffffffffffffffffffff16815260200190815260200160002060090160003373ffffffffffffffffffffffffffffffffffffffff1673ffffffffffffffffffffffffffffffffffffffff16815260200190815260200160002060009054906101000a900460ff161515141515612d4a576040517f08c379a00000000000000000000000000000000000000000000000000000000081526004018080602001828103825260328152602001807f50617469656e7420686173206e6f742070726f7669646564207065726d69737381526020017f696f6e20666f722074686520446f63746f72000000000000000000000000000081525060400191505060405180910390fd5b5b836000108015612d9d5750600360008673ffffffffffffffffffffffffffffffffffffffff1673ffffffffffffffffffffffffffffffffffffffff168152602001908152602001600020600701548411155b1515612e11576040517f08c379a000000000000000000000000000000000000000000000000000000000815260040180806020018281038252601a8152602001807f496e76616c6964205265636f72642049442070726f766964656400000000000081525060200191505060405180910390fd5b6000600360008773ffffffffffffffffffffffffffffffffffffffff1673ffffffffffffffffffffffffffffffffffffffff1681526020019081526020016000206008016000868152602001908152602001600020905080600001816001018260020154828054600181600116156101000203166002900480601f016020809104026020016040519081016040528092919081815260200182805460018160011615610100020316600290048015612f0a5780601f10612edf57610100808354040283529160200191612f0a565b820191906000526020600020905b815481529060010190602001808311612eed57829003601f168201915b50505050509250818054600181600116156101000203166002900480601f016020809104026020016040519081016040528092919081815260200182805460018160011615610100020316600290048015612fa65780601f10612f7b57610100808354040283529160200191612fa6565b820191906000526020600020905b815481529060010190602001808311612f8957829003601f168201915b50505050509150935093509350509250925092565b60015481565b60056020528060005260406000206000915090508060000160009054906101000a900473ffffffffffffffffffffffffffffffffffffffff1690806001018054600181600116156101000203166002900480601f0160208091040260200160405190810160405280929190818152602001828054600181600116156101000203166002900480156130935780601f1061306857610100808354040283529160200191613093565b820191906000526020600020905b81548152906001019060200180831161307657829003601f168201915b505050505090806002018054600181600116156101000203166002900480601f0160208091040260200160405190810160405280929190818152602001828054600181600116156101000203166002900480156131315780601f1061310657610100808354040283529160200191613131565b820191906000526020600020905b81548152906001019060200180831161311457829003601f168201915b5050505050908060030154908060040154905085565b600073ffffffffffffffffffffffffffffffffffffffff16600360003373ffffffffffffffffffffffffffffffffffffffff1673ffffffffffffffffffffffffffffffffffffffff16815260200190815260200160002060000160009054906101000a900473ffffffffffffffffffffffffffffffffffffffff1673ffffffffffffffffffffffffffffffffffffffff1614151561324d576040517f08c379a000000000000000000000000000000000000000000000000000000000815260040180806020018281038252601f8152602001807f416c7265616479207265676973746572656420617320612050617469656e740081525060200191505060405180910390fd5b600073ffffffffffffffffffffffffffffffffffffffff16600460003373ffffffffffffffffffffffffffffffffffffffff1673ffffffffffffffffffffffffffffffffffffffff16815260200190815260200160002060000160009054906101000a900473ffffffffffffffffffffffffffffffffffffffff1673ffffffffffffffffffffffffffffffffffffffff16141515613353576040517f08c379a000000000000000000000000000000000000000000000000000000000815260040180806020018281038252601e8152602001807f416c72656164792072656769737465726564206173206120446f63746f72000081525060200191505060405180910390fd5b600073ffffffffffffffffffffffffffffffffffffffff16600560003373ffffffffffffffffffffffffffffffffffffffff1673ffffffffffffffffffffffffffffffffffffffff16815260200190815260200160002060000160009054906101000a900473ffffffffffffffffffffffffffffffffffffffff1673ffffffffffffffffffffffffffffffffffffffff1614151561347f576040517f08c379a00000000000000000000000000000000000000000000000000000000081526004018080602001828103825260298152602001807f416c72656164792072656769737465726564206173206120446961676e6f737481526020017f69632043656e746572000000000000000000000000000000000000000000000081525060400191505060405180910390fd5b60026000815480929190600101919050555060a0604051908101604052803373ffffffffffffffffffffffffffffffffffffffff168152602001838152602001828152602001600081526020016000815250600560003373ffffffffffffffffffffffffffffffffffffffff1673ffffffffffffffffffffffffffffffffffffffff16815260200190815260200160002060008201518160000160006101000a81548173ffffffffffffffffffffffffffffffffffffffff021916908373ffffffffffffffffffffffffffffffffffffffff1602179055506020820151816001019080519060200190613573929190614e53565b506040820151816002019080519060200190613590929190614e53565b5060608201518160030155608082015181600401559050506000600560003373ffffffffffffffffffffffffffffffffffffffff1673ffffffffffffffffffffffffffffffffffffffff16815260200190815260200160002090507f15135a2d34d07691305f63fc82452db7e533e450d37de35c5a90b5ee8e77e9518160000160009054906101000a900473ffffffffffffffffffffffffffffffffffffffff168260010183600201604051808473ffffffffffffffffffffffffffffffffffffffff1673ffffffffffffffffffffffffffffffffffffffff16815260200180602001806020018381038352858181546001816001161561010002031660029004815260200191508054600181600116156101000203166002900480156136f85780601f106136cd576101008083540402835291602001916136f8565b820191906000526020600020905b8154815290600101906020018083116136db57829003601f168201915b505083810382528481815460018160011615610100020316600290048152602001915080546001816001161561010002031660029004801561377b5780601f106137505761010080835404028352916020019161377b565b820191906000526020600020905b81548152906001019060200180831161375e57829003601f168201915b50509550505050505060405180910390a1505050565b60005481565b60046020528060005260406000206000915090508060000160009054906101000a900473ffffffffffffffffffffffffffffffffffffffff1690806001018054600181600116156101000203166002900480601f0160208091040260200160405190810160405280929190818152602001828054600181600116156101000203166002900480156138695780601f1061383e57610100808354040283529160200191613869565b820191906000526020600020905b81548152906001019060200180831161384c57829003601f168201915b505050505090806002018054600181600116156101000203166002900480601f0160208091040260200160405190810160405280929190818152602001828054600181600116156101000203166002900480156139075780601f106138dc57610100808354040283529160200191613907565b820191906000526020600020905b8154815290600101906020018083116138ea57829003601f168201915b505050505090806003018054600181600116156101000203166002900480601f0160208091040260200160405190810160405280929190818152602001828054600181600116156101000203166002900480156139a55780601f1061397a576101008083540402835291602001916139a5565b820191906000526020600020905b81548152906001019060200180831161398857829003601f168201915b505050505090806004018054600181600116156101000203166002900480601f016020809104026020016040519081016040528092919081815260200182805460018160011615610100020316600290048015613a435780601f10613a1857610100808354040283529160200191613a43565b820191906000526020600020905b815481529060010190602001808311613a2657829003601f168201915b505050505090806005018054600181600116156101000203166002900480601f016020809104026020016040519081016040528092919081815260200182805460018160011615610100020316600290048015613ae15780601f10613ab657610100808354040283529160200191613ae1565b820191906000526020600020905b815481529060010190602001808311613ac457829003601f168201915b505050505090806006018054600181600116156101000203166002900480601f016020809104026020016040519081016040528092919081815260200182805460018160011615610100020316600290048015613b7f5780601f10613b5457610100808354040283529160200191613b7f565b820191906000526020600020905b815481529060010190602001808311613b6257829003601f168201915b505050505090806007018054600181600116156101000203166002900480601f016020809104026020016040519081016040528092919081815260200182805460018160011615610100020316600290048015613c1d5780601f10613bf257610100808354040283529160200191613c1d565b820191906000526020600020905b815481529060010190602001808311613c0057829003601f168201915b5050505050905088565b6060600073ffffffffffffffffffffffffffffffffffffffff16600360003373ffffffffffffffffffffffffffffffffffffffff1673ffffffffffffffffffffffffffffffffffffffff16815260200190815260200160002060000160009054906101000a900473ffffffffffffffffffffffffffffffffffffffff1673ffffffffffffffffffffffffffffffffffffffff16141515613cfe576040805190810160405280600781526020017f50617469656e74000000000000000000000000000000000000000000000000008152509050613ee1565b600073ffffffffffffffffffffffffffffffffffffffff16600460003373ffffffffffffffffffffffffffffffffffffffff1673ffffffffffffffffffffffffffffffffffffffff16815260200190815260200160002060000160009054906101000a900473ffffffffffffffffffffffffffffffffffffffff1673ffffffffffffffffffffffffffffffffffffffff16141515613dd3576040805190810160405280600681526020017f446f63746f7200000000000000000000000000000000000000000000000000008152509050613ee1565b600073ffffffffffffffffffffffffffffffffffffffff16600560003373ffffffffffffffffffffffffffffffffffffffff1673ffffffffffffffffffffffffffffffffffffffff16815260200190815260200160002060000160009054906101000a900473ffffffffffffffffffffffffffffffffffffffff1673ffffffffffffffffffffffffffffffffffffffff16141515613ea8576040805190810160405280601081526020017f446961676e6f7374696343656e746572000000000000000000000000000000008152509050613ee1565b6040805190810160405280600581526020017f477565737400000000000000000000000000000000000000000000000000000081525090505b90565b600073ffffffffffffffffffffffffffffffffffffffff16600360003373ffffffffffffffffffffffffffffffffffffffff1673ffffffffffffffffffffffffffffffffffffffff16815260200190815260200160002060000160009054906101000a900473ffffffffffffffffffffffffffffffffffffffff1673ffffffffffffffffffffffffffffffffffffffff1614151515613feb576040517f08c379a000000000000000000000000000000000000000000000000000000000815260040180806020018281038252600d8152602001807f4e6f7420612050617469656e740000000000000000000000000000000000000081525060200191505060405180910390fd5b6000600360003373ffffffffffffffffffffffffffffffffffffffff1673ffffffffffffffffffffffffffffffffffffffff1681526020019081526020016000209050806007016000815480929190600101919050555060606040519081016040528084815260200183815260200142815250816008016000836007015481526020019081526020016000206000820151816000019080519060200190614093929190614e53565b5060208201518160010190805190602001906140b0929190614e53565b50604082015181600201559050507f117e74ae24315ed88cdedb6182581ce0278bb9fda842125f2d04421ce05e27ca8160000160009054906101000a900473ffffffffffffffffffffffffffffffffffffffff1682600701548442604051808573ffffffffffffffffffffffffffffffffffffffff1673ffffffffffffffffffffffffffffffffffffffff16815260200184815260200180602001838152602001828103825284818151815260200191508051906020019080838360005b8381101561418957808201518184015260208101905061416e565b50505050905090810190601f1680156141b65780820380516001836020036101000a031916815260200191505b509550505050505060405180910390a1505050565b600073ffffffffffffffffffffffffffffffffffffffff16600360003373ffffffffffffffffffffffffffffffffffffffff1673ffffffffffffffffffffffffffffffffffffffff16815260200190815260200160002060000160009054906101000a900473ffffffffffffffffffffffffffffffffffffffff1673ffffffffffffffffffffffffffffffffffffffff161415156142d1576040517f08c379a000000000000000000000000000000000000000000000000000000000815260040180806020018281038252601f8152602001807f416c7265616479207265676973746572656420617320612050617469656e740081525060200191505060405180910390fd5b600073ffffffffffffffffffffffffffffffffffffffff16600460003373ffffffffffffffffffffffffffffffffffffffff1673ffffffffffffffffffffffffffffffffffffffff16815260200190815260200160002060000160009054906101000a900473ffffffffffffffffffffffffffffffffffffffff1673ffffffffffffffffffffffffffffffffffffffff161415156143d7576040517f08c379a000000000000000000000000000000000000000000000000000000000815260040180806020018281038252601e8152602001807f416c72656164792072656769737465726564206173206120446f63746f72000081525060200191505060405180910390fd5b600073ffffffffffffffffffffffffffffffffffffffff16600560003373ffffffffffffffffffffffffffffffffffffffff1673ffffffffffffffffffffffffffffffffffffffff16815260200190815260200160002060000160009054906101000a900473ffffffffffffffffffffffffffffffffffffffff1673ffffffffffffffffffffffffffffffffffffffff16141515614503576040517f08c379a00000000000000000000000000000000000000000000000000000000081526004018080602001828103825260298152602001807f416c72656164792072656769737465726564206173206120446961676e6f737481526020017f69632043656e746572000000000000000000000000000000000000000000000081525060400191505060405180910390fd5b6000808154809291906001019190505550610100604051908101604052803373ffffffffffffffffffffffffffffffffffffffff1681526020018781526020018681526020018581526020018481526020018381526020018281526020016000815250600360003373ffffffffffffffffffffffffffffffffffffffff1673ffffffffffffffffffffffffffffffffffffffff16815260200190815260200160002060008201518160000160006101000a81548173ffffffffffffffffffffffffffffffffffffffff021916908373ffffffffffffffffffffffffffffffffffffffff1602179055506020820151816001019080519060200190614608929190614e53565b506040820151816002019080519060200190614625929190614e53565b506060820151816003019080519060200190614642929190614e53565b50608082015181600401908051906020019061465f929190614e53565b5060a082015181600501908051906020019061467c929190614e53565b5060c0820151816006015560e082015181600701559050506000600360003373ffffffffffffffffffffffffffffffffffffffff1673ffffffffffffffffffffffffffffffffffffffff16815260200190815260200160002090507f907fe45ac4d9d503b344526760651e35c37a5e9ff5a18b01f2a18e5500ad73258160000160009054906101000a900473ffffffffffffffffffffffffffffffffffffffff1682600101836002018460030185600401866005018760060154604051808873ffffffffffffffffffffffffffffffffffffffff1673ffffffffffffffffffffffffffffffffffffffff168152602001806020018060200180602001806020018060200187815260200186810386528c8181546001816001161561010002031660029004815260200191508054600181600116156101000203166002900480156148075780601f106147dc57610100808354040283529160200191614807565b820191906000526020600020905b8154815290600101906020018083116147ea57829003601f168201915b505086810385528b81815460018160011615610100020316600290048152602001915080546001816001161561010002031660029004801561488a5780601f1061485f5761010080835404028352916020019161488a565b820191906000526020600020905b81548152906001019060200180831161486d57829003601f168201915b505086810384528a81815460018160011615610100020316600290048152602001915080546001816001161561010002031660029004801561490d5780601f106148e25761010080835404028352916020019161490d565b820191906000526020600020905b8154815290600101906020018083116148f057829003601f168201915b50508681038352898181546001816001161561010002031660029004815260200191508054600181600116156101000203166002900480156149905780601f1061496557610100808354040283529160200191614990565b820191906000526020600020905b81548152906001019060200180831161497357829003601f168201915b5050868103825288818154600181600116156101000203166002900481526020019150805460018160011615610100020316600290048015614a135780601f106149e857610100808354040283529160200191614a13565b820191906000526020600020905b8154815290600101906020018083116149f657829003601f168201915b50509c5050505050505050505050505060405180910390a150505050505050565b600073ffffffffffffffffffffffffffffffffffffffff16600560003373ffffffffffffffffffffffffffffffffffffffff1673ffffffffffffffffffffffffffffffffffffffff16815260200190815260200160002060000160009054906101000a900473ffffffffffffffffffffffffffffffffffffffff1673ffffffffffffffffffffffffffffffffffffffff1614151515614b3b576040517f08c379a00000000000000000000000000000000000000000000000000000000081526004018080602001828103825260178152602001807f4e6f74206120446961676e6f737469632043656e74657200000000000000000081525060200191505060405180910390fd5b6000600560003373ffffffffffffffffffffffffffffffffffffffff1673ffffffffffffffffffffffffffffffffffffffff168152602001908152602001600020905080600301600081548092919060010191905055506080604051908101604052808373ffffffffffffffffffffffffffffffffffffffff168152602001858152602001848152602001428152508160050160008360030154815260200190815260200160002060008201518160000160006101000a81548173ffffffffffffffffffffffffffffffffffffffff021916908373ffffffffffffffffffffffffffffffffffffffff1602179055506020820151816001019080519060200190614c46929190614e53565b506040820151816002019080519060200190614c63929190614e53565b50606082015181600301559050506000600360008473ffffffffffffffffffffffffffffffffffffffff1673ffffffffffffffffffffffffffffffffffffffff1681526020019081526020016000209050806007016000815480929190600101919050555060606040519081016040528086815260200185815260200142815250816008016000836007015481526020019081526020016000206000820151816000019080519060200190614d19929190614e53565b506020820151816001019080519060200190614d36929190614e53565b50604082015181600201559050507ffbef12e9c1cb81308f0517237d58bee7b7576a43b4b1929330dd87a8d81cb46d8260000160009054906101000a900473ffffffffffffffffffffffffffffffffffffffff1683600301548642604051808573ffffffffffffffffffffffffffffffffffffffff1673ffffffffffffffffffffffffffffffffffffffff16815260200184815260200180602001838152602001828103825284818151815260200191508051906020019080838360005b83811015614e0f578082015181840152602081019050614df4565b50505050905090810190601f168015614e3c5780820380516001836020036101000a031916815260200191505b509550505050505060405180910390a15050505050565b828054600181600116156101000203166002900490600052602060002090601f016020900481019282601f10614e9457805160ff1916838001178555614ec2565b82800160010185558215614ec2579182015b82811115614ec1578251825591602001919060010190614ea6565b5b509050614ecf9190614ed3565b5090565b614ef591905b80821115614ef1576000816000905550600101614ed9565b5090565b9056fea165627a7a72305820a045fab6ca1c23e7c0a16913ca976ca2f8058b5acae862c9e2207dd9a914c8b00029",
  "source": "pragma solidity ^0.5.0;\r\n\r\ncontract MedicalSystem {\r\n    uint public patientCount = 0;\r\n    uint public doctorCount = 0;\r\n    uint public diagnosticCentreCount = 0;\r\n    mapping(address => Patient) public patients;\r\n    mapping(address => Doctor) public doctors;\r\n    mapping(address => DiagnosticCenter) public diagnosticCenter;\r\n\r\n    constructor() public {\r\n    }\r\n\r\n    struct Record {\r\n        string ipfsHash;\r\n        string name;\r\n        uint uploadDate;\r\n    }\r\n\r\n\r\n\r\n    struct Patient {\r\n        address id;\r\n        string first_name;\r\n        string last_name;\r\n        string contact_number;\r\n        string blood_group;\r\n        string location;\r\n        uint age;\r\n        uint totalRecords;\r\n        mapping(uint => Record) records;\r\n        \r\n        mapping(address => bool) permissionsToDoctors;\r\n    }\r\n\r\n    event PatientCreated(\r\n        address id,\r\n        string first_name,\r\n        string last_name,\r\n        string contact_number,\r\n        string blood_group,\r\n        string location,\r\n        uint age\r\n    );\r\n\r\n\r\n    event PatientRecordUploaded(\r\n        address patientId,\r\n        uint newRecordId,\r\n        string name,\r\n        uint uploadDate\r\n    );\r\n\r\n    event GivenPermission(\r\n        address indexed patientId,\r\n        address indexed doctorId\r\n    );\r\n    \r\n\r\n    struct Doctor {\r\n        address id;\r\n        string first_name;\r\n        string last_name;\r\n        string contact_number;\r\n        string creditionals;\r\n        string hospital;\r\n        string department;\r\n        string imageUrl;\r\n\r\n        mapping(address => bool) patientsPermission;\r\n    }\r\n\r\n    event DoctorCreated(\r\n        address id,\r\n        string first_name,\r\n        string last_name,\r\n        string contact_number,\r\n        string creditionals,\r\n        string hospital,\r\n        string department,\r\n        string imageUrl\r\n    );\r\n\r\n    struct DiagnosticCenterRecord {\r\n        address patientId;\r\n        string ipfsHash;\r\n        string name;\r\n        uint uploadDate;\r\n    }\r\n\r\n    struct DiagnosticCenter {\r\n        address id;\r\n        string name;\r\n        string location;\r\n        uint diagnosticCenterTotalRecords;\r\n        uint noOfPatients;\r\n        mapping(uint => DiagnosticCenterRecord) diagnosticCenterRecords;\r\n        mapping(uint => address) diagnosticCenterPatients;\r\n    }\r\n\r\n    event DiagnosticCenterCreated(\r\n        address id,\r\n        string name,\r\n        string location\r\n    );\r\n\r\n    event DiagnosticCenterRecordUpload(\r\n        address diagnosticCenterId,\r\n        uint newRecordId,\r\n        string name,\r\n        uint uploadDate\r\n    );\r\n\r\n    function login() public view returns (string memory userType) {\r\n        if (patients[msg.sender].id != address(0)) return \"Patient\";\r\n        if (doctors[msg.sender].id != address(0)) return \"Doctor\";\r\n        if (diagnosticCenter[msg.sender].id != address(0)) return \"DiagnosticCenter\";\r\n        \r\n        return \"Guest\";\r\n    }\r\n\r\n\r\n    function createPatient(string memory _first_name,string memory _last_name,string memory _contact_number,string memory _blood_group,string memory _location, uint  _age) public {\r\n        if (patients[msg.sender].id != address(0)) revert(\"Already registered as a Patient\");\r\n        else if (doctors[msg.sender].id != address(0)) revert(\"Already registered as a Doctor\");\r\n        else if (diagnosticCenter[msg.sender].id != address(0)) revert(\"Already registered as a Diagnostic Center\");\r\n\r\n\r\n        patientCount++;\r\n        patients[msg.sender] = Patient({\r\n            id: msg.sender,\r\n            first_name: _first_name,\r\n            last_name: _last_name,\r\n            contact_number: _contact_number,\r\n            blood_group: _blood_group,\r\n            location: _location,\r\n            age: _age,\r\n            totalRecords: 0\r\n        });\r\n\r\n        Patient storage _patient = patients[msg.sender];\r\n        emit PatientCreated({\r\n            id: _patient.id,\r\n            first_name: _patient.first_name,\r\n            last_name:_patient.last_name,\r\n            contact_number:_patient.contact_number,\r\n            blood_group:_patient.blood_group,\r\n            location:_patient.location,\r\n            age: _patient.age\r\n        });\r\n    }\r\n\r\n    function createDiagnosticCenter(string memory _name,string memory _location) public{\r\n        if (patients[msg.sender].id != address(0)) revert(\"Already registered as a Patient\");\r\n        else if (doctors[msg.sender].id != address(0)) revert(\"Already registered as a Doctor\");\r\n        else if (diagnosticCenter[msg.sender].id != address(0)) revert(\"Already registered as a Diagnostic Center\");\r\n\r\n        diagnosticCentreCount++;\r\n        diagnosticCenter[msg.sender] = DiagnosticCenter({\r\n            id:msg.sender,\r\n            name:_name,\r\n            location:_location,\r\n            diagnosticCenterTotalRecords:0,\r\n            noOfPatients:0\r\n        });\r\n\r\n        DiagnosticCenter storage _diagnosticCenter = diagnosticCenter[msg.sender];\r\n        emit DiagnosticCenterCreated({\r\n            id:_diagnosticCenter.id,\r\n            name : _diagnosticCenter.name,\r\n            location : _diagnosticCenter.location\r\n        });\r\n    }\r\n\r\n    function uploadPatientRecord(string memory _ipfsHash, string memory _name) public {\r\n        require(patients[msg.sender].id != address(0), \"Not a Patient\");\r\n        \r\n        Patient storage _patient = patients[msg.sender];\r\n        _patient.totalRecords++;\r\n        _patient.records[_patient.totalRecords] = Record({\r\n            ipfsHash: _ipfsHash,\r\n            name: _name,\r\n            uploadDate: now\r\n        });\r\n\r\n        emit PatientRecordUploaded({\r\n            patientId: _patient.id,\r\n            newRecordId: _patient.totalRecords,\r\n            name: _name,\r\n            uploadDate: now\r\n        });\r\n    }\r\n\r\n    function uploadDiagnosticCenterRecord(string memory _ipfsHash, string memory _name, address _patientAddress) public {\r\n        require(diagnosticCenter[msg.sender].id != address(0), \"Not a Diagnostic Center\");\r\n\r\n        DiagnosticCenter storage _diagnosticCenter = diagnosticCenter[msg.sender];\r\n        _diagnosticCenter.diagnosticCenterTotalRecords++;\r\n        _diagnosticCenter.diagnosticCenterRecords[_diagnosticCenter.diagnosticCenterTotalRecords] = DiagnosticCenterRecord({\r\n            patientId : _patientAddress,\r\n            ipfsHash: _ipfsHash,\r\n            name: _name,\r\n            uploadDate: now\r\n        });\r\n\r\n        Patient storage _patient = patients[_patientAddress];\r\n        _patient.totalRecords++;\r\n        _patient.records[_patient.totalRecords] = Record({\r\n            ipfsHash: _ipfsHash,\r\n            name: _name,\r\n            uploadDate: now\r\n        });\r\n\r\n        emit DiagnosticCenterRecordUpload({\r\n            diagnosticCenterId:_diagnosticCenter.id,\r\n            newRecordId : _diagnosticCenter.diagnosticCenterTotalRecords,\r\n            name:_name,\r\n            uploadDate : now\r\n        });\r\n    }\r\n\r\n\r\n    function getPatientRecord(address _patientId, uint _recordId) \r\n    public view \r\n    returns (string memory ipfsHash, string memory name, uint uploadDate)\r\n    {\r\n        require(patients[_patientId].id != address(0), \"Invalid Patient ID provided\");\r\n\r\n        if(_patientId != msg.sender) {\r\n            require(\r\n                doctors[msg.sender].id != address(0), \r\n                \"Sender is not a Registered Doctor\"\r\n            );\r\n            require(\r\n                patients[_patientId].permissionsToDoctors[msg.sender] == true, \r\n                \"Patient has not provided permission for the Doctor\"\r\n            );\r\n        }\r\n\r\n        require(\r\n            0 < _recordId && _recordId <= patients[_patientId].totalRecords,\r\n            \"Invalid Record ID provided\"\r\n        );\r\n\r\n        Record storage _record = patients[_patientId].records[_recordId];\r\n        return (_record.ipfsHash, _record.name, _record.uploadDate);\r\n    }\r\n    \r\n    function createDoctor(\r\n        string memory _first_name, \r\n        string memory _last_name, \r\n        string memory _contact_number, \r\n        string memory _creditionals,  \r\n        string memory _hospitals, \r\n        string memory _department, \r\n        string memory _imageUrl\r\n    ) public {\r\n        if (patients[msg.sender].id != address(0)) revert(\"Already registered as a Patient\");\r\n        else if (doctors[msg.sender].id != address(0)) revert(\"Already registered as a Doctor\");\r\n        else if (diagnosticCenter[msg.sender].id != address(0)) revert(\"Already registered as a Diagnostic Center\");\r\n\r\n\r\n        doctorCount++;\r\n        doctors[msg.sender] = Doctor({\r\n            id: msg.sender,\r\n            first_name: _first_name,\r\n            last_name: _last_name,\r\n            contact_number: _contact_number,\r\n            creditionals: _creditionals,\r\n            hospital: _hospitals,\r\n            department: _department,\r\n            imageUrl: _imageUrl\r\n        });\r\n\r\n        Doctor storage _doctor = doctors[msg.sender];\r\n        emit DoctorCreated({\r\n            id: _doctor.id,\r\n            first_name: _doctor.first_name,\r\n            last_name: _doctor.last_name,\r\n            contact_number: _doctor.contact_number,\r\n            creditionals: _doctor.creditionals,\r\n            hospital: _doctor.hospital,\r\n            department: _doctor.department,\r\n            imageUrl: _doctor.imageUrl\r\n        });\r\n    }\r\n\r\n    function givePermission(address _doctorId) public {\r\n        require(patients[msg.sender].id != address(0), \"Sender is not a Registered Patient\");\r\n        require(doctors[_doctorId].id != address(0), \"Invalid Doctor ID provided\");\r\n\r\n        require(\r\n            patients[msg.sender].permissionsToDoctors[_doctorId] == false &&\r\n            doctors[_doctorId].patientsPermission[msg.sender] == false, \r\n            \"Permission already granted\"\r\n        );\r\n\r\n        //Patient Permission\r\n        Patient storage _patient = patients[msg.sender];\r\n        _patient.permissionsToDoctors[_doctorId] = true;\r\n\r\n        // Doctor Permission\r\n        Doctor storage _doctor  = doctors[_doctorId];\r\n        _doctor.patientsPermission[msg.sender] = true;\r\n\r\n        emit GivenPermission({\r\n            patientId: _patient.id,\r\n            doctorId: _doctor.id\r\n        });\r\n    }\r\n}\r\n\r\n\r\n",
  "sourcePath": "C:/Users/sampr/OneDrive/Desktop/Medical-System-IPFS-DApp/src/contracts/MedicalSystem.sol",
  "compiler": {
    "name": "solc",
    "version": "0.5.0+commit.1d4f565a.Emscripten.clang"
  },
  "schemaVersion": "3.0.2",
  "updatedAt": "2023-04-16T07:52:19.659Z",
  "devdoc": {
    "methods": {}
  },
  "userdoc": {
    "methods": {}
  }
}