{
  "contractName": "MedicalSystem",
  "abi": [
    {
      "constant": true,
      "inputs": [
        {
          "name": "",
          "type": "address"
        }
      ],
      "name": "patients",
      "outputs": [
        {
          "name": "id",
          "type": "address"
        },
        {
          "name": "name",
          "type": "string"
        },
        {
          "name": "age",
          "type": "uint256"
        },
        {
          "name": "totalRecords",
          "type": "uint256"
        }
      ],
      "payable": false,
      "stateMutability": "view",
      "type": "function",
      "signature": "0x0869cfbc"
    },
    {
      "constant": true,
      "inputs": [],
      "name": "doctorCount",
      "outputs": [
        {
          "name": "",
          "type": "uint256"
        }
      ],
      "payable": false,
      "stateMutability": "view",
      "type": "function",
      "signature": "0x78522bc4"
    },
    {
      "constant": true,
      "inputs": [],
      "name": "patientCount",
      "outputs": [
        {
          "name": "",
          "type": "uint256"
        }
      ],
      "payable": false,
      "stateMutability": "view",
      "type": "function",
      "signature": "0xa0303c41"
    },
    {
      "constant": true,
      "inputs": [
        {
          "name": "",
          "type": "address"
        }
      ],
      "name": "doctors",
      "outputs": [
        {
          "name": "id",
          "type": "address"
        },
        {
          "name": "name",
          "type": "string"
        },
        {
          "name": "imageUrl",
          "type": "string"
        }
      ],
      "payable": false,
      "stateMutability": "view",
      "type": "function",
      "signature": "0xa9583c22"
    },
    {
      "inputs": [],
      "payable": false,
      "stateMutability": "nonpayable",
      "type": "constructor",
      "signature": "constructor"
    },
    {
      "anonymous": false,
      "inputs": [
        {
          "indexed": false,
          "name": "id",
          "type": "address"
        },
        {
          "indexed": false,
          "name": "name",
          "type": "string"
        },
        {
          "indexed": false,
          "name": "age",
          "type": "uint256"
        }
      ],
      "name": "PatientCreated",
      "type": "event",
      "signature": "0xbdf48c05c56bb82376393c4bf9172c40f135dbf5268241b3b552af9e75a1f7d7"
    },
    {
      "anonymous": false,
      "inputs": [
        {
          "indexed": false,
          "name": "patientId",
          "type": "address"
        },
        {
          "indexed": false,
          "name": "newRecordId",
          "type": "uint256"
        },
        {
          "indexed": false,
          "name": "name",
          "type": "string"
        },
        {
          "indexed": false,
          "name": "uploadDate",
          "type": "uint256"
        }
      ],
      "name": "PatientRecordUploaded",
      "type": "event",
      "signature": "0x117e74ae24315ed88cdedb6182581ce0278bb9fda842125f2d04421ce05e27ca"
    },
    {
      "anonymous": false,
      "inputs": [
        {
          "indexed": true,
          "name": "patientId",
          "type": "address"
        },
        {
          "indexed": true,
          "name": "doctorId",
          "type": "address"
        }
      ],
      "name": "GivenPermission",
      "type": "event",
      "signature": "0x93b2764630793d9e391268c5205e3960890b0370b1e90349fb17a870bcfd1352"
    },
    {
      "anonymous": false,
      "inputs": [
        {
          "indexed": false,
          "name": "id",
          "type": "address"
        },
        {
          "indexed": false,
          "name": "name",
          "type": "string"
        },
        {
          "indexed": false,
          "name": "imageUrl",
          "type": "string"
        }
      ],
      "name": "DoctorCreated",
      "type": "event",
      "signature": "0xf19831c1853eb73a573e3b06c0497063730acc86e9983f5c3a38d2a0e8ba79df"
    },
    {
      "constant": true,
      "inputs": [],
      "name": "login",
      "outputs": [
        {
          "name": "userType",
          "type": "string"
        }
      ],
      "payable": false,
      "stateMutability": "view",
      "type": "function",
      "signature": "0xb34e97e8"
    },
    {
      "constant": false,
      "inputs": [
        {
          "name": "_name",
          "type": "string"
        },
        {
          "name": "_age",
          "type": "uint256"
        }
      ],
      "name": "createPatient",
      "outputs": [],
      "payable": false,
      "stateMutability": "nonpayable",
      "type": "function",
      "signature": "0x580d8038"
    },
    {
      "constant": false,
      "inputs": [
        {
          "name": "_ipfsHash",
          "type": "string"
        },
        {
          "name": "_name",
          "type": "string"
        }
      ],
      "name": "uploadPatientRecord",
      "outputs": [],
      "payable": false,
      "stateMutability": "nonpayable",
      "type": "function",
      "signature": "0xcdac6364"
    },
    {
      "constant": true,
      "inputs": [
        {
          "name": "_patientId",
          "type": "address"
        },
        {
          "name": "_recordId",
          "type": "uint256"
        }
      ],
      "name": "getPatientRecord",
      "outputs": [
        {
          "name": "ipfsHash",
          "type": "string"
        },
        {
          "name": "name",
          "type": "string"
        },
        {
          "name": "uploadDate",
          "type": "uint256"
        }
      ],
      "payable": false,
      "stateMutability": "view",
      "type": "function",
      "signature": "0x6d93fa19"
    },
    {
      "constant": false,
      "inputs": [
        {
          "name": "_name",
          "type": "string"
        },
        {
          "name": "_imageUrl",
          "type": "string"
        }
      ],
      "name": "createDoctor",
      "outputs": [],
      "payable": false,
      "stateMutability": "nonpayable",
      "type": "function",
      "signature": "0x98e0c67b"
    },
    {
      "constant": false,
      "inputs": [
        {
          "name": "_doctorId",
          "type": "address"
        }
      ],
      "name": "givePermission",
      "outputs": [],
      "payable": false,
      "stateMutability": "nonpayable",
      "type": "function",
      "signature": "0x3d391f70"
    }
  ],
  "bytecode": "0x608060405260008055600060015534801561001957600080fd5b50612672806100296000396000f3fe6080604052600436106100a4576000357c0100000000000000000000000000000000000000000000000000000000900463ffffffff1680630869cfbc146100a95780633d391f70146101b4578063580d8038146102055780636d93fa19146102d757806378522bc41461041e57806398e0c67b14610449578063a0303c41146105a8578063a9583c22146105d3578063b34e97e81461073c578063cdac6364146107cc575b600080fd5b3480156100b557600080fd5b506100f8600480360360208110156100cc57600080fd5b81019080803573ffffffffffffffffffffffffffffffffffffffff16906020019092919050505061092b565b604051808573ffffffffffffffffffffffffffffffffffffffff1673ffffffffffffffffffffffffffffffffffffffff16815260200180602001848152602001838152602001828103825285818151815260200191508051906020019080838360005b8381101561017657808201518184015260208101905061015b565b50505050905090810190601f1680156101a35780820380516001836020036101000a031916815260200191505b509550505050505060405180910390f35b3480156101c057600080fd5b50610203600480360360208110156101d757600080fd5b81019080803573ffffffffffffffffffffffffffffffffffffffff169060200190929190505050610a13565b005b34801561021157600080fd5b506102d56004803603604081101561022857600080fd5b810190808035906020019064010000000081111561024557600080fd5b82018360208201111561025757600080fd5b8035906020019184600183028401116401000000008311171561027957600080fd5b91908080601f016020809104026020016040519081016040528093929190818152602001838380828437600081840152601f19601f82011690508083019250505050505050919291929080359060200190929190505050610fcc565b005b3480156102e357600080fd5b50610330600480360360408110156102fa57600080fd5b81019080803573ffffffffffffffffffffffffffffffffffffffff16906020019092919080359060200190929190505050611444565b604051808060200180602001848152602001838103835286818151815260200191508051906020019080838360005b8381101561037a57808201518184015260208101905061035f565b50505050905090810190601f1680156103a75780820380516001836020036101000a031916815260200191505b50838103825285818151815260200191508051906020019080838360005b838110156103e05780820151818401526020810190506103c5565b50505050905090810190601f16801561040d5780820380516001836020036101000a031916815260200191505b509550505050505060405180910390f35b34801561042a57600080fd5b50610433611a50565b6040518082815260200191505060405180910390f35b34801561045557600080fd5b506105a66004803603604081101561046c57600080fd5b810190808035906020019064010000000081111561048957600080fd5b82018360208201111561049b57600080fd5b803590602001918460018302840111640100000000831117156104bd57600080fd5b91908080601f016020809104026020016040519081016040528093929190818152602001838380828437600081840152601f19601f8201169050808301925050505050505091929192908035906020019064010000000081111561052057600080fd5b82018360208201111561053257600080fd5b8035906020019184600183028401116401000000008311171561055457600080fd5b91908080601f016020809104026020016040519081016040528093929190818152602001838380828437600081840152601f19601f820116905080830192505050505050509192919290505050611a56565b005b3480156105b457600080fd5b506105bd611f52565b6040518082815260200191505060405180910390f35b3480156105df57600080fd5b50610622600480360360208110156105f657600080fd5b81019080803573ffffffffffffffffffffffffffffffffffffffff169060200190929190505050611f58565b604051808473ffffffffffffffffffffffffffffffffffffffff1673ffffffffffffffffffffffffffffffffffffffff1681526020018060200180602001838103835285818151815260200191508051906020019080838360005b8381101561069857808201518184015260208101905061067d565b50505050905090810190601f1680156106c55780820380516001836020036101000a031916815260200191505b50838103825284818151815260200191508051906020019080838360005b838110156106fe5780820151818401526020810190506106e3565b50505050905090810190601f16801561072b5780820380516001836020036101000a031916815260200191505b509550505050505060405180910390f35b34801561074857600080fd5b506107516120d2565b6040518080602001828103825283818151815260200191508051906020019080838360005b83811015610791578082015181840152602081019050610776565b50505050905090810190601f1680156107be5780820380516001836020036101000a031916815260200191505b509250505060405180910390f35b3480156107d857600080fd5b50610929600480360360408110156107ef57600080fd5b810190808035906020019064010000000081111561080c57600080fd5b82018360208201111561081e57600080fd5b8035906020019184600183028401116401000000008311171561084057600080fd5b91908080601f016020809104026020016040519081016040528093929190818152602001838380828437600081840152601f19601f820116905080830192505050505050509192919290803590602001906401000000008111156108a357600080fd5b8201836020820111156108b557600080fd5b803590602001918460018302840111640100000000831117156108d757600080fd5b91908080601f016020809104026020016040519081016040528093929190818152602001838380828437600081840152601f19601f8201169050808301925050505050505091929192905050506122ba565b005b60026020528060005260406000206000915090508060000160009054906101000a900473ffffffffffffffffffffffffffffffffffffffff1690806001018054600181600116156101000203166002900480601f0160208091040260200160405190810160405280929190818152602001828054600181600116156101000203166002900480156109fd5780601f106109d2576101008083540402835291602001916109fd565b820191906000526020600020905b8154815290600101906020018083116109e057829003601f168201915b5050505050908060020154908060030154905084565b600073ffffffffffffffffffffffffffffffffffffffff16600260003373ffffffffffffffffffffffffffffffffffffffff1673ffffffffffffffffffffffffffffffffffffffff16815260200190815260200160002060000160009054906101000a900473ffffffffffffffffffffffffffffffffffffffff1673ffffffffffffffffffffffffffffffffffffffff1614151515610b40576040517f08c379a00000000000000000000000000000000000000000000000000000000081526004018080602001828103825260228152602001807f53656e646572206973206e6f742061205265676973746572656420506174696581526020017f6e7400000000000000000000000000000000000000000000000000000000000081525060400191505060405180910390fd5b600073ffffffffffffffffffffffffffffffffffffffff16600360008373ffffffffffffffffffffffffffffffffffffffff1673ffffffffffffffffffffffffffffffffffffffff16815260200190815260200160002060000160009054906101000a900473ffffffffffffffffffffffffffffffffffffffff1673ffffffffffffffffffffffffffffffffffffffff1614151515610c47576040517f08c379a000000000000000000000000000000000000000000000000000000000815260040180806020018281038252601a8152602001807f496e76616c696420446f63746f722049442070726f766964656400000000000081525060200191505060405180910390fd5b60001515600260003373ffffffffffffffffffffffffffffffffffffffff1673ffffffffffffffffffffffffffffffffffffffff16815260200190815260200160002060050160008373ffffffffffffffffffffffffffffffffffffffff1673ffffffffffffffffffffffffffffffffffffffff16815260200190815260200160002060009054906101000a900460ff161515148015610d77575060001515600360008373ffffffffffffffffffffffffffffffffffffffff1673ffffffffffffffffffffffffffffffffffffffff16815260200190815260200160002060030160003373ffffffffffffffffffffffffffffffffffffffff1673ffffffffffffffffffffffffffffffffffffffff16815260200190815260200160002060009054906101000a900460ff161515145b1515610deb576040517f08c379a000000000000000000000000000000000000000000000000000000000815260040180806020018281038252601a8152602001807f5065726d697373696f6e20616c7265616479206772616e74656400000000000081525060200191505060405180910390fd5b6000600260003373ffffffffffffffffffffffffffffffffffffffff1673ffffffffffffffffffffffffffffffffffffffff168152602001908152602001600020905060018160050160008473ffffffffffffffffffffffffffffffffffffffff1673ffffffffffffffffffffffffffffffffffffffff16815260200190815260200160002060006101000a81548160ff0219169083151502179055506000600360008473ffffffffffffffffffffffffffffffffffffffff1673ffffffffffffffffffffffffffffffffffffffff168152602001908152602001600020905060018160030160003373ffffffffffffffffffffffffffffffffffffffff1673ffffffffffffffffffffffffffffffffffffffff16815260200190815260200160002060006101000a81548160ff0219169083151502179055508060000160009054906101000a900473ffffffffffffffffffffffffffffffffffffffff1673ffffffffffffffffffffffffffffffffffffffff168260000160009054906101000a900473ffffffffffffffffffffffffffffffffffffffff1673ffffffffffffffffffffffffffffffffffffffff167f93b2764630793d9e391268c5205e3960890b0370b1e90349fb17a870bcfd135260405160405180910390a3505050565b600073ffffffffffffffffffffffffffffffffffffffff16600260003373ffffffffffffffffffffffffffffffffffffffff1673ffffffffffffffffffffffffffffffffffffffff16815260200190815260200160002060000160009054906101000a900473ffffffffffffffffffffffffffffffffffffffff1673ffffffffffffffffffffffffffffffffffffffff161415156110d2576040517f08c379a000000000000000000000000000000000000000000000000000000000815260040180806020018281038252601f8152602001807f416c7265616479207265676973746572656420617320612050617469656e740081525060200191505060405180910390fd5b600073ffffffffffffffffffffffffffffffffffffffff16600360003373ffffffffffffffffffffffffffffffffffffffff1673ffffffffffffffffffffffffffffffffffffffff16815260200190815260200160002060000160009054906101000a900473ffffffffffffffffffffffffffffffffffffffff1673ffffffffffffffffffffffffffffffffffffffff161415156111d8576040517f08c379a000000000000000000000000000000000000000000000000000000000815260040180806020018281038252601e8152602001807f416c72656164792072656769737465726564206173206120446f63746f72000081525060200191505060405180910390fd5b60008081548092919060010191905055506080604051908101604052803373ffffffffffffffffffffffffffffffffffffffff1681526020018381526020018281526020016000815250600260003373ffffffffffffffffffffffffffffffffffffffff1673ffffffffffffffffffffffffffffffffffffffff16815260200190815260200160002060008201518160000160006101000a81548173ffffffffffffffffffffffffffffffffffffffff021916908373ffffffffffffffffffffffffffffffffffffffff16021790555060208201518160010190805190602001906112c49291906125a1565b5060408201518160020155606082015181600301559050506000600260003373ffffffffffffffffffffffffffffffffffffffff1673ffffffffffffffffffffffffffffffffffffffff16815260200190815260200160002090507fbdf48c05c56bb82376393c4bf9172c40f135dbf5268241b3b552af9e75a1f7d78160000160009054906101000a900473ffffffffffffffffffffffffffffffffffffffff16826001018360020154604051808473ffffffffffffffffffffffffffffffffffffffff1673ffffffffffffffffffffffffffffffffffffffff1681526020018060200183815260200182810382528481815460018160011615610100020316600290048152602001915080546001816001161561010002031660029004801561142f5780601f106114045761010080835404028352916020019161142f565b820191906000526020600020905b81548152906001019060200180831161141257829003601f168201915b505094505050505060405180910390a1505050565b60608060008073ffffffffffffffffffffffffffffffffffffffff16600260008773ffffffffffffffffffffffffffffffffffffffff1673ffffffffffffffffffffffffffffffffffffffff16815260200190815260200160002060000160009054906101000a900473ffffffffffffffffffffffffffffffffffffffff1673ffffffffffffffffffffffffffffffffffffffff161415151561154f576040517f08c379a000000000000000000000000000000000000000000000000000000000815260040180806020018281038252601b8152602001807f496e76616c69642050617469656e742049442070726f7669646564000000000081525060200191505060405180910390fd5b3373ffffffffffffffffffffffffffffffffffffffff168573ffffffffffffffffffffffffffffffffffffffff161415156117e057600073ffffffffffffffffffffffffffffffffffffffff16600360003373ffffffffffffffffffffffffffffffffffffffff1673ffffffffffffffffffffffffffffffffffffffff16815260200190815260200160002060000160009054906101000a900473ffffffffffffffffffffffffffffffffffffffff1673ffffffffffffffffffffffffffffffffffffffff16141515156116b1576040517f08c379a00000000000000000000000000000000000000000000000000000000081526004018080602001828103825260218152602001807f53656e646572206973206e6f742061205265676973746572656420446f63746f81526020017f720000000000000000000000000000000000000000000000000000000000000081525060400191505060405180910390fd5b60011515600260008773ffffffffffffffffffffffffffffffffffffffff1673ffffffffffffffffffffffffffffffffffffffff16815260200190815260200160002060050160003373ffffffffffffffffffffffffffffffffffffffff1673ffffffffffffffffffffffffffffffffffffffff16815260200190815260200160002060009054906101000a900460ff1615151415156117df576040517f08c379a00000000000000000000000000000000000000000000000000000000081526004018080602001828103825260328152602001807f50617469656e7420686173206e6f742070726f7669646564207065726d69737381526020017f696f6e20666f722074686520446f63746f72000000000000000000000000000081525060400191505060405180910390fd5b5b8360001080156118325750600260008673ffffffffffffffffffffffffffffffffffffffff1673ffffffffffffffffffffffffffffffffffffffff168152602001908152602001600020600301548411155b15156118a6576040517f08c379a000000000000000000000000000000000000000000000000000000000815260040180806020018281038252601a8152602001807f496e76616c6964205265636f72642049442070726f766964656400000000000081525060200191505060405180910390fd5b6000600260008773ffffffffffffffffffffffffffffffffffffffff1673ffffffffffffffffffffffffffffffffffffffff1681526020019081526020016000206004016000868152602001908152602001600020905080600001816001018260020154828054600181600116156101000203166002900480601f01602080910402602001604051908101604052809291908181526020018280546001816001161561010002031660029004801561199f5780601f106119745761010080835404028352916020019161199f565b820191906000526020600020905b81548152906001019060200180831161198257829003601f168201915b50505050509250818054600181600116156101000203166002900480601f016020809104026020016040519081016040528092919081815260200182805460018160011615610100020316600290048015611a3b5780601f10611a1057610100808354040283529160200191611a3b565b820191906000526020600020905b815481529060010190602001808311611a1e57829003601f168201915b50505050509150935093509350509250925092565b60015481565b600073ffffffffffffffffffffffffffffffffffffffff16600260003373ffffffffffffffffffffffffffffffffffffffff1673ffffffffffffffffffffffffffffffffffffffff16815260200190815260200160002060000160009054906101000a900473ffffffffffffffffffffffffffffffffffffffff1673ffffffffffffffffffffffffffffffffffffffff16141515611b5c576040517f08c379a000000000000000000000000000000000000000000000000000000000815260040180806020018281038252601f8152602001807f416c7265616479207265676973746572656420617320612050617469656e740081525060200191505060405180910390fd5b600073ffffffffffffffffffffffffffffffffffffffff16600360003373ffffffffffffffffffffffffffffffffffffffff1673ffffffffffffffffffffffffffffffffffffffff16815260200190815260200160002060000160009054906101000a900473ffffffffffffffffffffffffffffffffffffffff1673ffffffffffffffffffffffffffffffffffffffff16141515611c62576040517f08c379a000000000000000000000000000000000000000000000000000000000815260040180806020018281038252601e8152602001807f416c72656164792072656769737465726564206173206120446f63746f72000081525060200191505060405180910390fd5b6001600081548092919060010191905055506060604051908101604052803373ffffffffffffffffffffffffffffffffffffffff16815260200183815260200182815250600360003373ffffffffffffffffffffffffffffffffffffffff1673ffffffffffffffffffffffffffffffffffffffff16815260200190815260200160002060008201518160000160006101000a81548173ffffffffffffffffffffffffffffffffffffffff021916908373ffffffffffffffffffffffffffffffffffffffff1602179055506020820151816001019080519060200190611d489291906125a1565b506040820151816002019080519060200190611d659291906125a1565b509050506000600360003373ffffffffffffffffffffffffffffffffffffffff1673ffffffffffffffffffffffffffffffffffffffff16815260200190815260200160002090507ff19831c1853eb73a573e3b06c0497063730acc86e9983f5c3a38d2a0e8ba79df8160000160009054906101000a900473ffffffffffffffffffffffffffffffffffffffff168260010183600201604051808473ffffffffffffffffffffffffffffffffffffffff1673ffffffffffffffffffffffffffffffffffffffff1681526020018060200180602001838103835285818154600181600116156101000203166002900481526020019150805460018160011615610100020316600290048015611eb95780601f10611e8e57610100808354040283529160200191611eb9565b820191906000526020600020905b815481529060010190602001808311611e9c57829003601f168201915b5050838103825284818154600181600116156101000203166002900481526020019150805460018160011615610100020316600290048015611f3c5780601f10611f1157610100808354040283529160200191611f3c565b820191906000526020600020905b815481529060010190602001808311611f1f57829003601f168201915b50509550505050505060405180910390a1505050565b60005481565b60036020528060005260406000206000915090508060000160009054906101000a900473ffffffffffffffffffffffffffffffffffffffff1690806001018054600181600116156101000203166002900480601f01602080910402602001604051908101604052809291908181526020018280546001816001161561010002031660029004801561202a5780601f10611fff5761010080835404028352916020019161202a565b820191906000526020600020905b81548152906001019060200180831161200d57829003601f168201915b505050505090806002018054600181600116156101000203166002900480601f0160208091040260200160405190810160405280929190818152602001828054600181600116156101000203166002900480156120c85780601f1061209d576101008083540402835291602001916120c8565b820191906000526020600020905b8154815290600101906020018083116120ab57829003601f168201915b5050505050905083565b6060600073ffffffffffffffffffffffffffffffffffffffff16600260003373ffffffffffffffffffffffffffffffffffffffff1673ffffffffffffffffffffffffffffffffffffffff16815260200190815260200160002060000160009054906101000a900473ffffffffffffffffffffffffffffffffffffffff1673ffffffffffffffffffffffffffffffffffffffff161415156121a9576040805190810160405280600781526020017f50617469656e740000000000000000000000000000000000000000000000000081525090506122b7565b600073ffffffffffffffffffffffffffffffffffffffff16600360003373ffffffffffffffffffffffffffffffffffffffff1673ffffffffffffffffffffffffffffffffffffffff16815260200190815260200160002060000160009054906101000a900473ffffffffffffffffffffffffffffffffffffffff1673ffffffffffffffffffffffffffffffffffffffff1614151561227e576040805190810160405280600681526020017f446f63746f72000000000000000000000000000000000000000000000000000081525090506122b7565b6040805190810160405280600581526020017f477565737400000000000000000000000000000000000000000000000000000081525090505b90565b600073ffffffffffffffffffffffffffffffffffffffff16600260003373ffffffffffffffffffffffffffffffffffffffff1673ffffffffffffffffffffffffffffffffffffffff16815260200190815260200160002060000160009054906101000a900473ffffffffffffffffffffffffffffffffffffffff1673ffffffffffffffffffffffffffffffffffffffff16141515156123c1576040517f08c379a000000000000000000000000000000000000000000000000000000000815260040180806020018281038252600d8152602001807f4e6f7420612050617469656e740000000000000000000000000000000000000081525060200191505060405180910390fd5b6000600260003373ffffffffffffffffffffffffffffffffffffffff1673ffffffffffffffffffffffffffffffffffffffff16815260200190815260200160002090508060030160008154809291906001019190505550606060405190810160405280848152602001838152602001428152508160040160008360030154815260200190815260200160002060008201518160000190805190602001906124699291906125a1565b5060208201518160010190805190602001906124869291906125a1565b50604082015181600201559050507f117e74ae24315ed88cdedb6182581ce0278bb9fda842125f2d04421ce05e27ca8160000160009054906101000a900473ffffffffffffffffffffffffffffffffffffffff1682600301548442604051808573ffffffffffffffffffffffffffffffffffffffff1673ffffffffffffffffffffffffffffffffffffffff16815260200184815260200180602001838152602001828103825284818151815260200191508051906020019080838360005b8381101561255f578082015181840152602081019050612544565b50505050905090810190601f16801561258c5780820380516001836020036101000a031916815260200191505b509550505050505060405180910390a1505050565b828054600181600116156101000203166002900490600052602060002090601f016020900481019282601f106125e257805160ff1916838001178555612610565b82800160010185558215612610579182015b8281111561260f5782518255916020019190600101906125f4565b5b50905061261d9190612621565b5090565b61264391905b8082111561263f576000816000905550600101612627565b5090565b9056fea165627a7a72305820bc183b79dbba563ac994e3de56a3a912411f7916d7236a86bb4165cdd18d6c770029",
  "source": "pragma solidity ^0.5.0;\r\n\r\ncontract MedicalSystem {\r\n    uint public patientCount = 0;\r\n    uint public doctorCount = 0;\r\n    mapping(address => Patient) public patients;\r\n    mapping(address => Doctor) public doctors;\r\n\r\n    constructor() public {\r\n    }\r\n\r\n    struct Record {\r\n        string ipfsHash;\r\n        string name;\r\n        uint uploadDate;\r\n    }\r\n\r\n    struct Patient {\r\n        address id;\r\n        string name;\r\n        uint age;\r\n\r\n        uint totalRecords;\r\n        mapping(uint => Record) records;\r\n        \r\n        mapping(address => bool) permissionsToDoctors;\r\n    }\r\n\r\n    event PatientCreated(\r\n        address id,\r\n        string name,\r\n        uint age\r\n    );\r\n\r\n\r\n    event PatientRecordUploaded(\r\n        address patientId,\r\n        uint newRecordId,\r\n        string name,\r\n        uint uploadDate\r\n    );\r\n\r\n    event GivenPermission(\r\n        address indexed patientId,\r\n        address indexed doctorId\r\n    );\r\n\r\n    struct Doctor {\r\n        address id;\r\n        string name;\r\n        string imageUrl;\r\n\r\n        mapping(address => bool) patientsPermission;\r\n    }\r\n\r\n    event DoctorCreated(\r\n        address id,\r\n        string name,\r\n        string imageUrl\r\n    );\r\n\r\n    function login() public view returns (string memory userType) {\r\n        if (patients[msg.sender].id != address(0)) return \"Patient\";\r\n        if (doctors[msg.sender].id != address(0)) return \"Doctor\";\r\n        \r\n        return \"Guest\";\r\n    }\r\n\r\n\r\n    function createPatient(string memory _name, uint  _age) public {\r\n        if (patients[msg.sender].id != address(0)) revert(\"Already registered as a Patient\");\r\n        else if (doctors[msg.sender].id != address(0)) revert(\"Already registered as a Doctor\");\r\n\r\n        patientCount++;\r\n        patients[msg.sender] = Patient({\r\n            id: msg.sender,\r\n            name: _name,\r\n            age: _age,\r\n            totalRecords: 0\r\n        });\r\n\r\n        Patient storage _patient = patients[msg.sender];\r\n        emit PatientCreated({\r\n            id: _patient.id,\r\n            name: _patient.name,\r\n            age: _patient.age\r\n        });\r\n    }\r\n\r\n    function uploadPatientRecord(string memory _ipfsHash, string memory _name) public {\r\n        require(patients[msg.sender].id != address(0), \"Not a Patient\");\r\n        \r\n        Patient storage _patient = patients[msg.sender];\r\n        _patient.totalRecords++;\r\n        _patient.records[_patient.totalRecords] = Record({\r\n            ipfsHash: _ipfsHash,\r\n            name: _name,\r\n            uploadDate: now\r\n        });\r\n\r\n        emit PatientRecordUploaded({\r\n            patientId: _patient.id,\r\n            newRecordId: _patient.totalRecords,\r\n            name: _name,\r\n            uploadDate: now\r\n        });\r\n    }\r\n\r\n    function getPatientRecord(address _patientId, uint _recordId) \r\n    public view \r\n    returns (string memory ipfsHash, string memory name, uint uploadDate)\r\n    {\r\n        require(patients[_patientId].id != address(0), \"Invalid Patient ID provided\");\r\n\r\n        if(_patientId != msg.sender) {\r\n            require(\r\n                doctors[msg.sender].id != address(0), \r\n                \"Sender is not a Registered Doctor\"\r\n            );\r\n            require(\r\n                patients[_patientId].permissionsToDoctors[msg.sender] == true, \r\n                \"Patient has not provided permission for the Doctor\"\r\n            );\r\n        }\r\n\r\n        require(\r\n            0 < _recordId && _recordId <= patients[_patientId].totalRecords,\r\n            \"Invalid Record ID provided\"\r\n        );\r\n\r\n        Record storage _record = patients[_patientId].records[_recordId];\r\n        return (_record.ipfsHash, _record.name, _record.uploadDate);\r\n    }\r\n    \r\n    function createDoctor(\r\n        string memory _name, \r\n        string memory _imageUrl\r\n    ) public {\r\n        if (patients[msg.sender].id != address(0)) revert(\"Already registered as a Patient\");\r\n        else if (doctors[msg.sender].id != address(0)) revert(\"Already registered as a Doctor\");\r\n\r\n        doctorCount++;\r\n        doctors[msg.sender] = Doctor({\r\n            id: msg.sender,\r\n            name: _name,\r\n            imageUrl: _imageUrl\r\n        });\r\n\r\n        Doctor storage _doctor = doctors[msg.sender];\r\n        emit DoctorCreated({\r\n            id: _doctor.id,\r\n            name: _doctor.name,\r\n            imageUrl: _doctor.imageUrl\r\n        });\r\n    }\r\n\r\n    function givePermission(address _doctorId) public {\r\n        require(patients[msg.sender].id != address(0), \"Sender is not a Registered Patient\");\r\n        require(doctors[_doctorId].id != address(0), \"Invalid Doctor ID provided\");\r\n\r\n        require(\r\n            patients[msg.sender].permissionsToDoctors[_doctorId] == false &&\r\n            doctors[_doctorId].patientsPermission[msg.sender] == false, \r\n            \"Permission already granted\"\r\n        );\r\n\r\n        //Patient Permission\r\n        Patient storage _patient = patients[msg.sender];\r\n        _patient.permissionsToDoctors[_doctorId] = true;\r\n\r\n        // Doctor Permission\r\n        Doctor storage _doctor  = doctors[_doctorId];\r\n        _doctor.patientsPermission[msg.sender] = true;\r\n\r\n        emit GivenPermission({\r\n            patientId: _patient.id,\r\n            doctorId: _doctor.id\r\n        });\r\n    }\r\n}\r\n\r\n\r\n",
  "sourcePath": "C:/Users/sampr/OneDrive/Desktop/Medical-System-IPFS-DApp/src/contracts/MedicalSystem.sol",
  "compiler": {
    "name": "solc",
    "version": "0.5.0+commit.1d4f565a.Emscripten.clang"
  },
  "schemaVersion": "3.0.2",
  "updatedAt": "2023-03-14T12:05:58.287Z",
  "devdoc": {
    "methods": {}
  },
  "userdoc": {
    "methods": {}
  }
}