{
  "contractName": "MedicalSystem",
  "abi": [
    {
      "inputs": [],
      "payable": false,
      "stateMutability": "nonpayable",
      "type": "constructor"
    },
    {
      "anonymous": false,
      "inputs": [
        {
          "indexed": false,
          "internalType": "address",
          "name": "id",
          "type": "address"
        },
        {
          "indexed": false,
          "internalType": "string",
          "name": "name",
          "type": "string"
        },
        {
          "indexed": false,
          "internalType": "string",
          "name": "imageUrl",
          "type": "string"
        }
      ],
      "name": "DoctorCreated",
      "type": "event"
    },
    {
      "anonymous": false,
      "inputs": [
        {
          "indexed": true,
          "internalType": "address",
          "name": "patientId",
          "type": "address"
        },
        {
          "indexed": true,
          "internalType": "address",
          "name": "doctorId",
          "type": "address"
        }
      ],
      "name": "GivenPermission",
      "type": "event"
    },
    {
      "anonymous": false,
      "inputs": [
        {
          "indexed": false,
          "internalType": "address",
          "name": "id",
          "type": "address"
        },
        {
          "indexed": false,
          "internalType": "string",
          "name": "name",
          "type": "string"
        },
        {
          "indexed": false,
          "internalType": "uint256",
          "name": "age",
          "type": "uint256"
        }
      ],
      "name": "PatientCreated",
      "type": "event"
    },
    {
      "anonymous": false,
      "inputs": [
        {
          "indexed": false,
          "internalType": "address",
          "name": "patientId",
          "type": "address"
        },
        {
          "indexed": false,
          "internalType": "uint256",
          "name": "newRecordId",
          "type": "uint256"
        },
        {
          "indexed": false,
          "internalType": "string",
          "name": "name",
          "type": "string"
        },
        {
          "indexed": false,
          "internalType": "uint256",
          "name": "uploadDate",
          "type": "uint256"
        }
      ],
      "name": "PatientRecordUploaded",
      "type": "event"
    },
    {
      "constant": true,
      "inputs": [],
      "name": "doctorCount",
      "outputs": [
        {
          "internalType": "uint256",
          "name": "",
          "type": "uint256"
        }
      ],
      "payable": false,
      "stateMutability": "view",
      "type": "function"
    },
    {
      "constant": true,
      "inputs": [
        {
          "internalType": "address",
          "name": "",
          "type": "address"
        }
      ],
      "name": "doctors",
      "outputs": [
        {
          "internalType": "address",
          "name": "id",
          "type": "address"
        },
        {
          "internalType": "string",
          "name": "name",
          "type": "string"
        },
        {
          "internalType": "string",
          "name": "imageUrl",
          "type": "string"
        }
      ],
      "payable": false,
      "stateMutability": "view",
      "type": "function"
    },
    {
      "constant": true,
      "inputs": [],
      "name": "patientCount",
      "outputs": [
        {
          "internalType": "uint256",
          "name": "",
          "type": "uint256"
        }
      ],
      "payable": false,
      "stateMutability": "view",
      "type": "function"
    },
    {
      "constant": true,
      "inputs": [
        {
          "internalType": "address",
          "name": "",
          "type": "address"
        }
      ],
      "name": "patients",
      "outputs": [
        {
          "internalType": "address",
          "name": "id",
          "type": "address"
        },
        {
          "internalType": "string",
          "name": "name",
          "type": "string"
        },
        {
          "internalType": "uint256",
          "name": "age",
          "type": "uint256"
        },
        {
          "internalType": "uint256",
          "name": "totalRecords",
          "type": "uint256"
        }
      ],
      "payable": false,
      "stateMutability": "view",
      "type": "function"
    },
    {
      "constant": true,
      "inputs": [],
      "name": "login",
      "outputs": [
        {
          "internalType": "string",
          "name": "userType",
          "type": "string"
        }
      ],
      "payable": false,
      "stateMutability": "view",
      "type": "function"
    },
    {
      "constant": false,
      "inputs": [
        {
          "internalType": "string",
          "name": "_name",
          "type": "string"
        },
        {
          "internalType": "uint256",
          "name": "_age",
          "type": "uint256"
        }
      ],
      "name": "createPatient",
      "outputs": [],
      "payable": false,
      "stateMutability": "nonpayable",
      "type": "function"
    },
    {
      "constant": false,
      "inputs": [
        {
          "internalType": "string",
          "name": "_ipfsHash",
          "type": "string"
        },
        {
          "internalType": "string",
          "name": "_name",
          "type": "string"
        }
      ],
      "name": "uploadPatientRecord",
      "outputs": [],
      "payable": false,
      "stateMutability": "nonpayable",
      "type": "function"
    },
    {
      "constant": true,
      "inputs": [
        {
          "internalType": "address",
          "name": "_patientId",
          "type": "address"
        },
        {
          "internalType": "uint256",
          "name": "_recordId",
          "type": "uint256"
        }
      ],
      "name": "getPatientRecord",
      "outputs": [
        {
          "internalType": "string",
          "name": "ipfsHash",
          "type": "string"
        },
        {
          "internalType": "string",
          "name": "name",
          "type": "string"
        },
        {
          "internalType": "uint256",
          "name": "uploadDate",
          "type": "uint256"
        }
      ],
      "payable": false,
      "stateMutability": "view",
      "type": "function"
    },
    {
      "constant": false,
      "inputs": [
        {
          "internalType": "string",
          "name": "_name",
          "type": "string"
        },
        {
          "internalType": "string",
          "name": "_imageUrl",
          "type": "string"
        }
      ],
      "name": "createDoctor",
      "outputs": [],
      "payable": false,
      "stateMutability": "nonpayable",
      "type": "function"
    },
    {
      "constant": false,
      "inputs": [
        {
          "internalType": "address",
          "name": "_doctorId",
          "type": "address"
        }
      ],
      "name": "givePermission",
      "outputs": [],
      "payable": false,
      "stateMutability": "nonpayable",
      "type": "function"
    }
  ],
  "bytecode": "0x608060405260008055600060015534801561001957600080fd5b5061257e806100296000396000f3fe608060405234801561001057600080fd5b506004361061009e5760003560e01c806398e0c67b1161006657806398e0c67b14610402578063a0303c4114610554578063a9583c2214610572578063b34e97e8146106ce578063cdac6364146107515761009e565b80630869cfbc146100a35780633d391f70146101a1578063580d8038146101e55780636d93fa19146102aa57806378522bc4146103e4575b600080fd5b6100e5600480360360208110156100b957600080fd5b81019080803573ffffffffffffffffffffffffffffffffffffffff1690602001909291905050506108a3565b604051808573ffffffffffffffffffffffffffffffffffffffff1673ffffffffffffffffffffffffffffffffffffffff16815260200180602001848152602001838152602001828103825285818151815260200191508051906020019080838360005b83811015610163578082015181840152602081019050610148565b50505050905090810190601f1680156101905780820380516001836020036101000a031916815260200191505b509550505050505060405180910390f35b6101e3600480360360208110156101b757600080fd5b81019080803573ffffffffffffffffffffffffffffffffffffffff16906020019092919050505061098b565b005b6102a8600480360360408110156101fb57600080fd5b810190808035906020019064010000000081111561021857600080fd5b82018360208201111561022a57600080fd5b8035906020019184600183028401116401000000008311171561024c57600080fd5b91908080601f016020809104026020016040519081016040528093929190818152602001838380828437600081840152601f19601f82011690508083019250505050505050919291929080359060200190929190505050610efb565b005b6102f6600480360360408110156102c057600080fd5b81019080803573ffffffffffffffffffffffffffffffffffffffff1690602001909291908035906020019092919050505061136e565b604051808060200180602001848152602001838103835286818151815260200191508051906020019080838360005b83811015610340578082015181840152602081019050610325565b50505050905090810190601f16801561036d5780820380516001836020036101000a031916815260200191505b50838103825285818151815260200191508051906020019080838360005b838110156103a657808201518184015260208101905061038b565b50505050905090810190601f1680156103d35780820380516001836020036101000a031916815260200191505b509550505050505060405180910390f35b6103ec6118ea565b6040518082815260200191505060405180910390f35b6105526004803603604081101561041857600080fd5b810190808035906020019064010000000081111561043557600080fd5b82018360208201111561044757600080fd5b8035906020019184600183028401116401000000008311171561046957600080fd5b91908080601f016020809104026020016040519081016040528093929190818152602001838380828437600081840152601f19601f820116905080830192505050505050509192919290803590602001906401000000008111156104cc57600080fd5b8201836020820111156104de57600080fd5b8035906020019184600183028401116401000000008311171561050057600080fd5b91908080601f016020809104026020016040519081016040528093929190818152602001838380828437600081840152601f19601f8201169050808301925050505050505091929192905050506118f0565b005b61055c611de7565b6040518082815260200191505060405180910390f35b6105b46004803603602081101561058857600080fd5b81019080803573ffffffffffffffffffffffffffffffffffffffff169060200190929190505050611ded565b604051808473ffffffffffffffffffffffffffffffffffffffff1673ffffffffffffffffffffffffffffffffffffffff1681526020018060200180602001838103835285818151815260200191508051906020019080838360005b8381101561062a57808201518184015260208101905061060f565b50505050905090810190601f1680156106575780820380516001836020036101000a031916815260200191505b50838103825284818151815260200191508051906020019080838360005b83811015610690578082015181840152602081019050610675565b50505050905090810190601f1680156106bd5780820380516001836020036101000a031916815260200191505b509550505050505060405180910390f35b6106d6611f67565b6040518080602001828103825283818151815260200191508051906020019080838360005b838110156107165780820151818401526020810190506106fb565b50505050905090810190601f1680156107435780820380516001836020036101000a031916815260200191505b509250505060405180910390f35b6108a16004803603604081101561076757600080fd5b810190808035906020019064010000000081111561078457600080fd5b82018360208201111561079657600080fd5b803590602001918460018302840111640100000000831117156107b857600080fd5b91908080601f016020809104026020016040519081016040528093929190818152602001838380828437600081840152601f19601f8201169050808301925050505050505091929192908035906020019064010000000081111561081b57600080fd5b82018360208201111561082d57600080fd5b8035906020019184600183028401116401000000008311171561084f57600080fd5b91908080601f016020809104026020016040519081016040528093929190818152602001838380828437600081840152601f19601f82011690508083019250505050505050919291929050505061214b565b005b60026020528060005260406000206000915090508060000160009054906101000a900473ffffffffffffffffffffffffffffffffffffffff1690806001018054600181600116156101000203166002900480601f0160208091040260200160405190810160405280929190818152602001828054600181600116156101000203166002900480156109755780601f1061094a57610100808354040283529160200191610975565b820191906000526020600020905b81548152906001019060200180831161095857829003601f168201915b5050505050908060020154908060030154905084565b600073ffffffffffffffffffffffffffffffffffffffff16600260003373ffffffffffffffffffffffffffffffffffffffff1673ffffffffffffffffffffffffffffffffffffffff16815260200190815260200160002060000160009054906101000a900473ffffffffffffffffffffffffffffffffffffffff1673ffffffffffffffffffffffffffffffffffffffff161415610a73576040517f08c379a00000000000000000000000000000000000000000000000000000000081526004018080602001828103825260228152602001806124d56022913960400191505060405180910390fd5b600073ffffffffffffffffffffffffffffffffffffffff16600360008373ffffffffffffffffffffffffffffffffffffffff1673ffffffffffffffffffffffffffffffffffffffff16815260200190815260200160002060000160009054906101000a900473ffffffffffffffffffffffffffffffffffffffff1673ffffffffffffffffffffffffffffffffffffffff161415610b78576040517f08c379a000000000000000000000000000000000000000000000000000000000815260040180806020018281038252601a8152602001807f496e76616c696420446f63746f722049442070726f766964656400000000000081525060200191505060405180910390fd5b60001515600260003373ffffffffffffffffffffffffffffffffffffffff1673ffffffffffffffffffffffffffffffffffffffff16815260200190815260200160002060050160008373ffffffffffffffffffffffffffffffffffffffff1673ffffffffffffffffffffffffffffffffffffffff16815260200190815260200160002060009054906101000a900460ff161515148015610ca8575060001515600360008373ffffffffffffffffffffffffffffffffffffffff1673ffffffffffffffffffffffffffffffffffffffff16815260200190815260200160002060030160003373ffffffffffffffffffffffffffffffffffffffff1673ffffffffffffffffffffffffffffffffffffffff16815260200190815260200160002060009054906101000a900460ff161515145b610d1a576040517f08c379a000000000000000000000000000000000000000000000000000000000815260040180806020018281038252601a8152602001807f5065726d697373696f6e20616c7265616479206772616e74656400000000000081525060200191505060405180910390fd5b6000600260003373ffffffffffffffffffffffffffffffffffffffff1673ffffffffffffffffffffffffffffffffffffffff168152602001908152602001600020905060018160050160008473ffffffffffffffffffffffffffffffffffffffff1673ffffffffffffffffffffffffffffffffffffffff16815260200190815260200160002060006101000a81548160ff0219169083151502179055506000600360008473ffffffffffffffffffffffffffffffffffffffff1673ffffffffffffffffffffffffffffffffffffffff168152602001908152602001600020905060018160030160003373ffffffffffffffffffffffffffffffffffffffff1673ffffffffffffffffffffffffffffffffffffffff16815260200190815260200160002060006101000a81548160ff0219169083151502179055508060000160009054906101000a900473ffffffffffffffffffffffffffffffffffffffff1673ffffffffffffffffffffffffffffffffffffffff168260000160009054906101000a900473ffffffffffffffffffffffffffffffffffffffff1673ffffffffffffffffffffffffffffffffffffffff167f93b2764630793d9e391268c5205e3960890b0370b1e90349fb17a870bcfd135260405160405180910390a3505050565b600073ffffffffffffffffffffffffffffffffffffffff16600260003373ffffffffffffffffffffffffffffffffffffffff1673ffffffffffffffffffffffffffffffffffffffff16815260200190815260200160002060000160009054906101000a900473ffffffffffffffffffffffffffffffffffffffff1673ffffffffffffffffffffffffffffffffffffffff1614610fff576040517f08c379a000000000000000000000000000000000000000000000000000000000815260040180806020018281038252601f8152602001807f416c7265616479207265676973746572656420617320612050617469656e740081525060200191505060405180910390fd5b600073ffffffffffffffffffffffffffffffffffffffff16600360003373ffffffffffffffffffffffffffffffffffffffff1673ffffffffffffffffffffffffffffffffffffffff16815260200190815260200160002060000160009054906101000a900473ffffffffffffffffffffffffffffffffffffffff1673ffffffffffffffffffffffffffffffffffffffff1614611103576040517f08c379a000000000000000000000000000000000000000000000000000000000815260040180806020018281038252601e8152602001807f416c72656164792072656769737465726564206173206120446f63746f72000081525060200191505060405180910390fd5b600080815480929190600101919050555060405180608001604052803373ffffffffffffffffffffffffffffffffffffffff1681526020018381526020018281526020016000815250600260003373ffffffffffffffffffffffffffffffffffffffff1673ffffffffffffffffffffffffffffffffffffffff16815260200190815260200160002060008201518160000160006101000a81548173ffffffffffffffffffffffffffffffffffffffff021916908373ffffffffffffffffffffffffffffffffffffffff16021790555060208201518160010190805190602001906111ee92919061242f565b5060408201518160020155606082015181600301559050506000600260003373ffffffffffffffffffffffffffffffffffffffff1673ffffffffffffffffffffffffffffffffffffffff16815260200190815260200160002090507fbdf48c05c56bb82376393c4bf9172c40f135dbf5268241b3b552af9e75a1f7d78160000160009054906101000a900473ffffffffffffffffffffffffffffffffffffffff16826001018360020154604051808473ffffffffffffffffffffffffffffffffffffffff1673ffffffffffffffffffffffffffffffffffffffff168152602001806020018381526020018281038252848181546001816001161561010002031660029004815260200191508054600181600116156101000203166002900480156113595780601f1061132e57610100808354040283529160200191611359565b820191906000526020600020905b81548152906001019060200180831161133c57829003601f168201915b505094505050505060405180910390a1505050565b60608060008073ffffffffffffffffffffffffffffffffffffffff16600260008773ffffffffffffffffffffffffffffffffffffffff1673ffffffffffffffffffffffffffffffffffffffff16815260200190815260200160002060000160009054906101000a900473ffffffffffffffffffffffffffffffffffffffff1673ffffffffffffffffffffffffffffffffffffffff161415611477576040517f08c379a000000000000000000000000000000000000000000000000000000000815260040180806020018281038252601b8152602001807f496e76616c69642050617469656e742049442070726f7669646564000000000081525060200191505060405180910390fd5b3373ffffffffffffffffffffffffffffffffffffffff168573ffffffffffffffffffffffffffffffffffffffff161461167c57600073ffffffffffffffffffffffffffffffffffffffff16600360003373ffffffffffffffffffffffffffffffffffffffff1673ffffffffffffffffffffffffffffffffffffffff16815260200190815260200160002060000160009054906101000a900473ffffffffffffffffffffffffffffffffffffffff1673ffffffffffffffffffffffffffffffffffffffff161415611592576040517f08c379a00000000000000000000000000000000000000000000000000000000081526004018080602001828103825260218152602001806124f76021913960400191505060405180910390fd5b60011515600260008773ffffffffffffffffffffffffffffffffffffffff1673ffffffffffffffffffffffffffffffffffffffff16815260200190815260200160002060050160003373ffffffffffffffffffffffffffffffffffffffff1673ffffffffffffffffffffffffffffffffffffffff16815260200190815260200160002060009054906101000a900460ff1615151461167b576040517f08c379a00000000000000000000000000000000000000000000000000000000081526004018080602001828103825260328152602001806125186032913960400191505060405180910390fd5b5b8360001080156116ce5750600260008673ffffffffffffffffffffffffffffffffffffffff1673ffffffffffffffffffffffffffffffffffffffff168152602001908152602001600020600301548411155b611740576040517f08c379a000000000000000000000000000000000000000000000000000000000815260040180806020018281038252601a8152602001807f496e76616c6964205265636f72642049442070726f766964656400000000000081525060200191505060405180910390fd5b6000600260008773ffffffffffffffffffffffffffffffffffffffff1673ffffffffffffffffffffffffffffffffffffffff1681526020019081526020016000206004016000868152602001908152602001600020905080600001816001018260020154828054600181600116156101000203166002900480601f0160208091040260200160405190810160405280929190818152602001828054600181600116156101000203166002900480156118395780601f1061180e57610100808354040283529160200191611839565b820191906000526020600020905b81548152906001019060200180831161181c57829003601f168201915b50505050509250818054600181600116156101000203166002900480601f0160208091040260200160405190810160405280929190818152602001828054600181600116156101000203166002900480156118d55780601f106118aa576101008083540402835291602001916118d5565b820191906000526020600020905b8154815290600101906020018083116118b857829003601f168201915b50505050509150935093509350509250925092565b60015481565b600073ffffffffffffffffffffffffffffffffffffffff16600260003373ffffffffffffffffffffffffffffffffffffffff1673ffffffffffffffffffffffffffffffffffffffff16815260200190815260200160002060000160009054906101000a900473ffffffffffffffffffffffffffffffffffffffff1673ffffffffffffffffffffffffffffffffffffffff16146119f4576040517f08c379a000000000000000000000000000000000000000000000000000000000815260040180806020018281038252601f8152602001807f416c7265616479207265676973746572656420617320612050617469656e740081525060200191505060405180910390fd5b600073ffffffffffffffffffffffffffffffffffffffff16600360003373ffffffffffffffffffffffffffffffffffffffff1673ffffffffffffffffffffffffffffffffffffffff16815260200190815260200160002060000160009054906101000a900473ffffffffffffffffffffffffffffffffffffffff1673ffffffffffffffffffffffffffffffffffffffff1614611af8576040517f08c379a000000000000000000000000000000000000000000000000000000000815260040180806020018281038252601e8152602001807f416c72656164792072656769737465726564206173206120446f63746f72000081525060200191505060405180910390fd5b60016000815480929190600101919050555060405180606001604052803373ffffffffffffffffffffffffffffffffffffffff16815260200183815260200182815250600360003373ffffffffffffffffffffffffffffffffffffffff1673ffffffffffffffffffffffffffffffffffffffff16815260200190815260200160002060008201518160000160006101000a81548173ffffffffffffffffffffffffffffffffffffffff021916908373ffffffffffffffffffffffffffffffffffffffff1602179055506020820151816001019080519060200190611bdd92919061242f565b506040820151816002019080519060200190611bfa92919061242f565b509050506000600360003373ffffffffffffffffffffffffffffffffffffffff1673ffffffffffffffffffffffffffffffffffffffff16815260200190815260200160002090507ff19831c1853eb73a573e3b06c0497063730acc86e9983f5c3a38d2a0e8ba79df8160000160009054906101000a900473ffffffffffffffffffffffffffffffffffffffff168260010183600201604051808473ffffffffffffffffffffffffffffffffffffffff1673ffffffffffffffffffffffffffffffffffffffff1681526020018060200180602001838103835285818154600181600116156101000203166002900481526020019150805460018160011615610100020316600290048015611d4e5780601f10611d2357610100808354040283529160200191611d4e565b820191906000526020600020905b815481529060010190602001808311611d3157829003601f168201915b5050838103825284818154600181600116156101000203166002900481526020019150805460018160011615610100020316600290048015611dd15780601f10611da657610100808354040283529160200191611dd1565b820191906000526020600020905b815481529060010190602001808311611db457829003601f168201915b50509550505050505060405180910390a1505050565b60005481565b60036020528060005260406000206000915090508060000160009054906101000a900473ffffffffffffffffffffffffffffffffffffffff1690806001018054600181600116156101000203166002900480601f016020809104026020016040519081016040528092919081815260200182805460018160011615610100020316600290048015611ebf5780601f10611e9457610100808354040283529160200191611ebf565b820191906000526020600020905b815481529060010190602001808311611ea257829003601f168201915b505050505090806002018054600181600116156101000203166002900480601f016020809104026020016040519081016040528092919081815260200182805460018160011615610100020316600290048015611f5d5780601f10611f3257610100808354040283529160200191611f5d565b820191906000526020600020905b815481529060010190602001808311611f4057829003601f168201915b5050505050905083565b6060600073ffffffffffffffffffffffffffffffffffffffff16600260003373ffffffffffffffffffffffffffffffffffffffff1673ffffffffffffffffffffffffffffffffffffffff16815260200190815260200160002060000160009054906101000a900473ffffffffffffffffffffffffffffffffffffffff1673ffffffffffffffffffffffffffffffffffffffff161461203c576040518060400160405280600781526020017f50617469656e74000000000000000000000000000000000000000000000000008152509050612148565b600073ffffffffffffffffffffffffffffffffffffffff16600360003373ffffffffffffffffffffffffffffffffffffffff1673ffffffffffffffffffffffffffffffffffffffff16815260200190815260200160002060000160009054906101000a900473ffffffffffffffffffffffffffffffffffffffff1673ffffffffffffffffffffffffffffffffffffffff161461210f576040518060400160405280600681526020017f446f63746f7200000000000000000000000000000000000000000000000000008152509050612148565b6040518060400160405280600581526020017f477565737400000000000000000000000000000000000000000000000000000081525090505b90565b600073ffffffffffffffffffffffffffffffffffffffff16600260003373ffffffffffffffffffffffffffffffffffffffff1673ffffffffffffffffffffffffffffffffffffffff16815260200190815260200160002060000160009054906101000a900473ffffffffffffffffffffffffffffffffffffffff1673ffffffffffffffffffffffffffffffffffffffff161415612250576040517f08c379a000000000000000000000000000000000000000000000000000000000815260040180806020018281038252600d8152602001807f4e6f7420612050617469656e740000000000000000000000000000000000000081525060200191505060405180910390fd5b6000600260003373ffffffffffffffffffffffffffffffffffffffff1673ffffffffffffffffffffffffffffffffffffffff168152602001908152602001600020905080600301600081548092919060010191905055506040518060600160405280848152602001838152602001428152508160040160008360030154815260200190815260200160002060008201518160000190805190602001906122f792919061242f565b50602082015181600101908051906020019061231492919061242f565b50604082015181600201559050507f117e74ae24315ed88cdedb6182581ce0278bb9fda842125f2d04421ce05e27ca8160000160009054906101000a900473ffffffffffffffffffffffffffffffffffffffff1682600301548442604051808573ffffffffffffffffffffffffffffffffffffffff1673ffffffffffffffffffffffffffffffffffffffff16815260200184815260200180602001838152602001828103825284818151815260200191508051906020019080838360005b838110156123ed5780820151818401526020810190506123d2565b50505050905090810190601f16801561241a5780820380516001836020036101000a031916815260200191505b509550505050505060405180910390a1505050565b828054600181600116156101000203166002900490600052602060002090601f016020900481019282601f1061247057805160ff191683800117855561249e565b8280016001018555821561249e579182015b8281111561249d578251825591602001919060010190612482565b5b5090506124ab91906124af565b5090565b6124d191905b808211156124cd5760008160009055506001016124b5565b5090565b9056fe53656e646572206973206e6f74206120526567697374657265642050617469656e7453656e646572206973206e6f742061205265676973746572656420446f63746f7250617469656e7420686173206e6f742070726f7669646564207065726d697373696f6e20666f722074686520446f63746f72a265627a7a723158208e15e70772ba845f5c6f37879da4c818b2013630bb951e68cb6a51cdbb81867b64736f6c63430005100032",
  "source": "pragma solidity ^0.5.0;\r\n\r\ncontract MedicalSystem {\r\n    uint public patientCount  = 0;\r\n    uint public doctorCount = 0;\r\n    mapping(address => Patient) public patients;\r\n    mapping(address => Doctor) public doctors;\r\n\r\n    constructor() public {\r\n    }\r\n\r\n    struct Record {\r\n        string ipfsHash;\r\n        string name;\r\n        uint uploadDate;\r\n    }\r\n\r\n    struct Patient {\r\n        address id;\r\n        string name;\r\n        uint age;\r\n\r\n        uint totalRecords;\r\n        mapping(uint => Record) records;\r\n        \r\n        mapping(address => bool) permissionsToDoctors;\r\n    }\r\n\r\n    event PatientCreated(\r\n        address id,\r\n        string name,\r\n        uint age\r\n    );\r\n\r\n\r\n    event PatientRecordUploaded(\r\n        address patientId,\r\n        uint newRecordId,\r\n        string name,\r\n        uint uploadDate\r\n    );\r\n\r\n    event GivenPermission(\r\n        address indexed patientId,\r\n        address indexed doctorId\r\n    );\r\n\r\n    struct Doctor {\r\n        address id;\r\n        string name;\r\n        string imageUrl;\r\n\r\n        mapping(address => bool) patientsPermission;\r\n    }\r\n\r\n    event DoctorCreated(\r\n        address id,\r\n        string name,\r\n        string imageUrl\r\n    );\r\n\r\n    function login() public view returns (string memory userType) {\r\n        if (patients[msg.sender].id != address(0)) return \"Patient\";\r\n        if (doctors[msg.sender].id != address(0)) return \"Doctor\";\r\n        \r\n        return \"Guest\";\r\n    }\r\n\r\n\r\n    function createPatient(string memory _name, uint  _age) public {\r\n        if (patients[msg.sender].id != address(0)) revert(\"Already registered as a Patient\");\r\n        else if (doctors[msg.sender].id != address(0)) revert(\"Already registered as a Doctor\");\r\n\r\n        patientCount++;\r\n        patients[msg.sender] = Patient({\r\n            id: msg.sender,\r\n            name: _name,\r\n            age: _age,\r\n            totalRecords: 0\r\n        });\r\n\r\n        Patient storage _patient = patients[msg.sender];\r\n        emit PatientCreated({\r\n            id: _patient.id,\r\n            name: _patient.name,\r\n            age: _patient.age\r\n        });\r\n    }\r\n\r\n    function uploadPatientRecord(string memory _ipfsHash, string memory _name) public {\r\n        require(patients[msg.sender].id != address(0), \"Not a Patient\");\r\n        \r\n        Patient storage _patient = patients[msg.sender];\r\n        _patient.totalRecords++;\r\n        _patient.records[_patient.totalRecords] = Record({\r\n            ipfsHash: _ipfsHash,\r\n            name: _name,\r\n            uploadDate: now\r\n        });\r\n\r\n        emit PatientRecordUploaded({\r\n            patientId: _patient.id,\r\n            newRecordId: _patient.totalRecords,\r\n            name: _name,\r\n            uploadDate: now\r\n        });\r\n    }\r\n\r\n    function getPatientRecord(address _patientId, uint _recordId) \r\n    public view \r\n    returns (string memory ipfsHash, string memory name, uint uploadDate)\r\n    {\r\n        require(patients[_patientId].id != address(0), \"Invalid Patient ID provided\");\r\n\r\n        if(_patientId != msg.sender) {\r\n            require(\r\n                doctors[msg.sender].id != address(0), \r\n                \"Sender is not a Registered Doctor\"\r\n            );\r\n            require(\r\n                patients[_patientId].permissionsToDoctors[msg.sender] == true, \r\n                \"Patient has not provided permission for the Doctor\"\r\n            );\r\n        }\r\n\r\n        require(\r\n            0 < _recordId && _recordId <= patients[_patientId].totalRecords,\r\n            \"Invalid Record ID provided\"\r\n        );\r\n\r\n        Record storage _record = patients[_patientId].records[_recordId];\r\n        return (_record.ipfsHash, _record.name, _record.uploadDate);\r\n    }\r\n    \r\n    function createDoctor(\r\n        string memory _name, \r\n        string memory _imageUrl\r\n    ) public {\r\n        if (patients[msg.sender].id != address(0)) revert(\"Already registered as a Patient\");\r\n        else if (doctors[msg.sender].id != address(0)) revert(\"Already registered as a Doctor\");\r\n\r\n        doctorCount++;\r\n        doctors[msg.sender] = Doctor({\r\n            id: msg.sender,\r\n            name: _name,\r\n            imageUrl: _imageUrl\r\n        });\r\n\r\n        Doctor storage _doctor = doctors[msg.sender];\r\n        emit DoctorCreated({\r\n            id: _doctor.id,\r\n            name: _doctor.name,\r\n            imageUrl: _doctor.imageUrl\r\n        });\r\n    }\r\n\r\n    function givePermission(address _doctorId) public {\r\n        require(patients[msg.sender].id != address(0), \"Sender is not a Registered Patient\");\r\n        require(doctors[_doctorId].id != address(0), \"Invalid Doctor ID provided\");\r\n\r\n        require(\r\n            patients[msg.sender].permissionsToDoctors[_doctorId] == false &&\r\n            doctors[_doctorId].patientsPermission[msg.sender] == false, \r\n            \"Permission already granted\"\r\n        );\r\n\r\n        //Patient Permission\r\n        Patient storage _patient = patients[msg.sender];\r\n        _patient.permissionsToDoctors[_doctorId] = true;\r\n\r\n        // Doctor Permission\r\n        Doctor storage _doctor  = doctors[_doctorId];\r\n        _doctor.patientsPermission[msg.sender] = true;\r\n\r\n        emit GivenPermission({\r\n            patientId: _patient.id,\r\n            doctorId: _doctor.id\r\n        });\r\n    }\r\n}\r\n\r\n\r\n",
  "sourcePath": "D:/Desktop/My-Projects/Full Stack Apps/CyberSecuirty-Project/src/contracts/MedicalSystem.sol",
  "compiler": {
    "name": "solc",
    "version": "0.5.16+commit.9c3226ce.Emscripten.clang"
  },
  "schemaVersion": "3.3.4",
  "updatedAt": "2022-04-20T08:58:59.091Z",
  "networkType": "ethereum",
  "devdoc": {
    "methods": {}
  },
  "userdoc": {
    "methods": {}
  }
}